{"contracts/Bitwise.sol":{"BitMasking":{"abi":[{"inputs":[],"name":"checkPoisoned","outputs":[{"internalType":"bool","name":"","type":"bool"}],"stateMutability":"view","type":"function"},{"inputs":[],"name":"playerFlags","outputs":[{"internalType":"uint256","name":"","type":"uint256"}],"stateMutability":"view","type":"function"},{"inputs":[],"name":"respawnWithGun","outputs":[],"stateMutability":"nonpayable","type":"function"},{"inputs":[],"name":"setPoisoned","outputs":[],"stateMutability":"nonpayable","type":"function"}],"evm":{"bytecode":{"linkReferences":{},"object":"6080604052348015600f57600080fd5b506101758061001f6000396000f3fe608060405234801561001057600080fd5b506004361061004c5760003560e01c80630a17afc81461005157806345f6830c1461005b578063bf7e678714610079578063ea5c935714610083575b600080fd5b6100596100a1565b005b6100636100af565b60405161007091906100f0565b60405180910390f35b6100816100be565b005b61008b6100cf565b6040516100989190610124565b60405180910390f35b600460005417600081905550565b60006004806000541614905090565b600260016000541717600081905550565b60005481565b60008115159050919050565b6100ea816100d5565b82525050565b600060208201905061010560008301846100e1565b92915050565b6000819050919050565b61011e8161010b565b82525050565b60006020820190506101396000830184610115565b9291505056fea264697066735822122026bbc8d582e8c47e88a9e930fc2e6088234edd663d78fb7a74b136a233e624cd64736f6c634300081c0033","opcodes":"PUSH1 0x80 PUSH1 0x40 MSTORE CALLVALUE DUP1 ISZERO PUSH1 0xF JUMPI PUSH1 0x0 DUP1 REVERT JUMPDEST POP PUSH2 0x175 DUP1 PUSH2 0x1F PUSH1 0x0 CODECOPY PUSH1 0x0 RETURN INVALID PUSH1 0x80 PUSH1 0x40 MSTORE CALLVALUE DUP1 ISZERO PUSH2 0x10 JUMPI PUSH1 0x0 DUP1 REVERT JUMPDEST POP PUSH1 0x4 CALLDATASIZE LT PUSH2 0x4C JUMPI PUSH1 0x0 CALLDATALOAD PUSH1 0xE0 SHR DUP1 PUSH4 0xA17AFC8 EQ PUSH2 0x51 JUMPI DUP1 PUSH4 0x45F6830C EQ PUSH2 0x5B JUMPI DUP1 PUSH4 0xBF7E6787 EQ PUSH2 0x79 JUMPI DUP1 PUSH4 0xEA5C9357 EQ PUSH2 0x83 JUMPI JUMPDEST PUSH1 0x0 DUP1 REVERT JUMPDEST PUSH2 0x59 PUSH2 0xA1 JUMP JUMPDEST STOP JUMPDEST PUSH2 0x63 PUSH2 0xAF JUMP JUMPDEST PUSH1 0x40 MLOAD PUSH2 0x70 SWAP2 SWAP1 PUSH2 0xF0 JUMP JUMPDEST PUSH1 0x40 MLOAD DUP1 SWAP2 SUB SWAP1 RETURN JUMPDEST PUSH2 0x81 PUSH2 0xBE JUMP JUMPDEST STOP JUMPDEST PUSH2 0x8B PUSH2 0xCF JUMP JUMPDEST PUSH1 0x40 MLOAD PUSH2 0x98 SWAP2 SWAP1 PUSH2 0x124 JUMP JUMPDEST PUSH1 0x40 MLOAD DUP1 SWAP2 SUB SWAP1 RETURN JUMPDEST PUSH1 0x4 PUSH1 0x0 SLOAD OR PUSH1 0x0 DUP2 SWAP1 SSTORE POP JUMP JUMPDEST PUSH1 0x0 PUSH1 0x4 DUP1 PUSH1 0x0 SLOAD AND EQ SWAP1 POP SWAP1 JUMP JUMPDEST PUSH1 0x2 PUSH1 0x1 PUSH1 0x0 SLOAD OR OR PUSH1 0x0 DUP2 SWAP1 SSTORE POP JUMP JUMPDEST PUSH1 0x0 SLOAD DUP2 JUMP JUMPDEST PUSH1 0x0 DUP2 ISZERO ISZERO SWAP1 POP SWAP2 SWAP1 POP JUMP JUMPDEST PUSH2 0xEA DUP2 PUSH2 0xD5 JUMP JUMPDEST DUP3 MSTORE POP POP JUMP JUMPDEST PUSH1 0x0 PUSH1 0x20 DUP3 ADD SWAP1 POP PUSH2 0x105 PUSH1 0x0 DUP4 ADD DUP5 PUSH2 0xE1 JUMP JUMPDEST SWAP3 SWAP2 POP POP JUMP JUMPDEST PUSH1 0x0 DUP2 SWAP1 POP SWAP2 SWAP1 POP JUMP JUMPDEST PUSH2 0x11E DUP2 PUSH2 0x10B JUMP JUMPDEST DUP3 MSTORE POP POP JUMP JUMPDEST PUSH1 0x0 PUSH1 0x20 DUP3 ADD SWAP1 POP PUSH2 0x139 PUSH1 0x0 DUP4 ADD DUP5 PUSH2 0x115 JUMP JUMPDEST SWAP3 SWAP2 POP POP JUMP INVALID LOG2 PUSH5 0x6970667358 0x22 SLT KECCAK256 0x26 0xBB 0xC8 0xD5 DUP3 0xE8 0xC4 PUSH31 0x88A9E930FC2E6088234EDD663D78FB7A74B136A233E624CD64736F6C634300 ADDMOD SHR STOP CALLER "},"methodIdentifiers":{"checkPoisoned()":"45f6830c","playerFlags()":"ea5c9357","respawnWithGun()":"bf7e6787","setPoisoned()":"0a17afc8"}}}}}