{
  "_format": "hh-sol-artifact-1",
  "contractName": "BitMasking",
  "sourceName": "contracts/Bitwise.sol",
  "abi": [
    {
      "inputs": [],
      "name": "checkPoisoned",
      "outputs": [
        {
          "internalType": "bool",
          "name": "",
          "type": "bool"
        }
      ],
      "stateMutability": "view",
      "type": "function"
    },
    {
      "inputs": [],
      "name": "playerFlags",
      "outputs": [
        {
          "internalType": "uint256",
          "name": "",
          "type": "uint256"
        }
      ],
      "stateMutability": "view",
      "type": "function"
    },
    {
      "inputs": [],
      "name": "respawnWithGun",
      "outputs": [],
      "stateMutability": "nonpayable",
      "type": "function"
    },
    {
      "inputs": [],
      "name": "setPoisoned",
      "outputs": [],
      "stateMutability": "nonpayable",
      "type": "function"
    }
  ],
  "bytecode": "0x6080604052348015600f57600080fd5b506101758061001f6000396000f3fe608060405234801561001057600080fd5b506004361061004c5760003560e01c80630a17afc81461005157806345f6830c1461005b578063bf7e678714610079578063ea5c935714610083575b600080fd5b6100596100a1565b005b6100636100af565b60405161007091906100f0565b60405180910390f35b6100816100be565b005b61008b6100cf565b6040516100989190610124565b60405180910390f35b600460005417600081905550565b60006004806000541614905090565b600260016000541717600081905550565b60005481565b60008115159050919050565b6100ea816100d5565b82525050565b600060208201905061010560008301846100e1565b92915050565b6000819050919050565b61011e8161010b565b82525050565b60006020820190506101396000830184610115565b9291505056fea264697066735822122026bbc8d582e8c47e88a9e930fc2e6088234edd663d78fb7a74b136a233e624cd64736f6c634300081c0033",
  "linkReferences": {},
  "deployedLinkReferences": {}
}