{
  "_format": "hh-sol-artifact-1",
  "contractName": "GameScores",
  "sourceName": "contracts/Events.sol",
  "abi": [
    {
      "anonymous": false,
      "inputs": [
        {
          "indexed": true,
          "internalType": "address",
          "name": "player",
          "type": "address"
        },
        {
          "indexed": false,
          "internalType": "uint256",
          "name": "score",
          "type": "uint256"
        },
        {
          "indexed": false,
          "internalType": "string",
          "name": "mapName",
          "type": "string"
        }
      ],
      "name": "NewHighScore",
      "type": "event"
    },
    {
      "inputs": [
        {
          "internalType": "address",
          "name": "",
          "type": "address"
        }
      ],
      "name": "highestScores",
      "outputs": [
        {
          "internalType": "uint256",
          "name": "",
          "type": "uint256"
        }
      ],
      "stateMutability": "view",
      "type": "function"
    },
    {
      "inputs": [
        {
          "internalType": "uint256",
          "name": "_score",
          "type": "uint256"
        },
        {
          "internalType": "string",
          "name": "_mapName",
          "type": "string"
        }
      ],
      "name": "submitScore",
      "outputs": [],
      "stateMutability": "nonpayable",
      "type": "function"
    }
  ],
  "bytecode": "0x6080604052348015600f57600080fd5b506104bc8061001f6000396000f3fe608060405234801561001057600080fd5b50600436106100365760003560e01c8063bc2256dc1461003b578063c6505ed614610057575b600080fd5b610055600480360381019061005091906102c6565b610087565b005b610071600480360381019061006c9190610380565b61011e565b60405161007e91906103bc565b60405180910390f35b816000803373ffffffffffffffffffffffffffffffffffffffff1673ffffffffffffffffffffffffffffffffffffffff168152602001908152602001600020819055503373ffffffffffffffffffffffffffffffffffffffff167fb030160b991933b1a5b28115bccc2858fefaefbf5cec47dcc632700bde5ebe7e8383604051610112929190610456565b60405180910390a25050565b60006020528060005260406000206000915090505481565b6000604051905090565b600080fd5b600080fd5b6000819050919050565b61015d8161014a565b811461016857600080fd5b50565b60008135905061017a81610154565b92915050565b600080fd5b600080fd5b6000601f19601f8301169050919050565b7f4e487b7100000000000000000000000000000000000000000000000000000000600052604160045260246000fd5b6101d38261018a565b810181811067ffffffffffffffff821117156101f2576101f161019b565b5b80604052505050565b6000610205610136565b905061021182826101ca565b919050565b600067ffffffffffffffff8211156102315761023061019b565b5b61023a8261018a565b9050602081019050919050565b82818337600083830152505050565b600061026961026484610216565b6101fb565b90508281526020810184848401111561028557610284610185565b5b610290848285610247565b509392505050565b600082601f8301126102ad576102ac610180565b5b81356102bd848260208601610256565b91505092915050565b600080604083850312156102dd576102dc610140565b5b60006102eb8582860161016b565b925050602083013567ffffffffffffffff81111561030c5761030b610145565b5b61031885828601610298565b9150509250929050565b600073ffffffffffffffffffffffffffffffffffffffff82169050919050565b600061034d82610322565b9050919050565b61035d81610342565b811461036857600080fd5b50565b60008135905061037a81610354565b92915050565b60006020828403121561039657610395610140565b5b60006103a48482850161036b565b91505092915050565b6103b68161014a565b82525050565b60006020820190506103d160008301846103ad565b92915050565b600081519050919050565b600082825260208201905092915050565b60005b838110156104115780820151818401526020810190506103f6565b60008484015250505050565b6000610428826103d7565b61043281856103e2565b93506104428185602086016103f3565b61044b8161018a565b840191505092915050565b600060408201905061046b60008301856103ad565b818103602083015261047d818461041d565b9050939250505056fea26469706673582212202f6bed34b77e20c22bf923424af2b567b5b9e4d20d91b9dad0cac43be500a6eb64736f6c634300081c0033",
  "linkReferences": {},
  "deployedLinkReferences": {}
}