{
  "_format": "hh-sol-artifact-1",
  "contractName": "WeaponNFT",
  "sourceName": "contracts/WeaponNFT.sol.sol",
  "abi": [
    {
      "inputs": [],
      "stateMutability": "nonpayable",
      "type": "constructor"
    },
    {
      "inputs": [
        {
          "internalType": "address",
          "name": "sender",
          "type": "address"
        },
        {
          "internalType": "uint256",
          "name": "tokenId",
          "type": "uint256"
        },
        {
          "internalType": "address",
          "name": "owner",
          "type": "address"
        }
      ],
      "name": "ERC721IncorrectOwner",
      "type": "error"
    },
    {
      "inputs": [
        {
          "internalType": "address",
          "name": "operator",
          "type": "address"
        },
        {
          "internalType": "uint256",
          "name": "tokenId",
          "type": "uint256"
        }
      ],
      "name": "ERC721InsufficientApproval",
      "type": "error"
    },
    {
      "inputs": [
        {
          "internalType": "address",
          "name": "approver",
          "type": "address"
        }
      ],
      "name": "ERC721InvalidApprover",
      "type": "error"
    },
    {
      "inputs": [
        {
          "internalType": "address",
          "name": "operator",
          "type": "address"
        }
      ],
      "name": "ERC721InvalidOperator",
      "type": "error"
    },
    {
      "inputs": [
        {
          "internalType": "address",
          "name": "owner",
          "type": "address"
        }
      ],
      "name": "ERC721InvalidOwner",
      "type": "error"
    },
    {
      "inputs": [
        {
          "internalType": "address",
          "name": "receiver",
          "type": "address"
        }
      ],
      "name": "ERC721InvalidReceiver",
      "type": "error"
    },
    {
      "inputs": [
        {
          "internalType": "address",
          "name": "sender",
          "type": "address"
        }
      ],
      "name": "ERC721InvalidSender",
      "type": "error"
    },
    {
      "inputs": [
        {
          "internalType": "uint256",
          "name": "tokenId",
          "type": "uint256"
        }
      ],
      "name": "ERC721NonexistentToken",
      "type": "error"
    },
    {
      "inputs": [
        {
          "internalType": "address",
          "name": "owner",
          "type": "address"
        }
      ],
      "name": "OwnableInvalidOwner",
      "type": "error"
    },
    {
      "inputs": [
        {
          "internalType": "address",
          "name": "account",
          "type": "address"
        }
      ],
      "name": "OwnableUnauthorizedAccount",
      "type": "error"
    },
    {
      "anonymous": false,
      "inputs": [
        {
          "indexed": true,
          "internalType": "address",
          "name": "owner",
          "type": "address"
        },
        {
          "indexed": true,
          "internalType": "address",
          "name": "approved",
          "type": "address"
        },
        {
          "indexed": true,
          "internalType": "uint256",
          "name": "tokenId",
          "type": "uint256"
        }
      ],
      "name": "Approval",
      "type": "event"
    },
    {
      "anonymous": false,
      "inputs": [
        {
          "indexed": true,
          "internalType": "address",
          "name": "owner",
          "type": "address"
        },
        {
          "indexed": true,
          "internalType": "address",
          "name": "operator",
          "type": "address"
        },
        {
          "indexed": false,
          "internalType": "bool",
          "name": "approved",
          "type": "bool"
        }
      ],
      "name": "ApprovalForAll",
      "type": "event"
    },
    {
      "anonymous": false,
      "inputs": [
        {
          "indexed": false,
          "internalType": "uint256",
          "name": "_fromTokenId",
          "type": "uint256"
        },
        {
          "indexed": false,
          "internalType": "uint256",
          "name": "_toTokenId",
          "type": "uint256"
        }
      ],
      "name": "BatchMetadataUpdate",
      "type": "event"
    },
    {
      "anonymous": false,
      "inputs": [
        {
          "indexed": false,
          "internalType": "uint256",
          "name": "_tokenId",
          "type": "uint256"
        }
      ],
      "name": "MetadataUpdate",
      "type": "event"
    },
    {
      "anonymous": false,
      "inputs": [
        {
          "indexed": true,
          "internalType": "address",
          "name": "previousOwner",
          "type": "address"
        },
        {
          "indexed": true,
          "internalType": "address",
          "name": "newOwner",
          "type": "address"
        }
      ],
      "name": "OwnershipTransferred",
      "type": "event"
    },
    {
      "anonymous": false,
      "inputs": [
        {
          "indexed": true,
          "internalType": "address",
          "name": "from",
          "type": "address"
        },
        {
          "indexed": true,
          "internalType": "address",
          "name": "to",
          "type": "address"
        },
        {
          "indexed": true,
          "internalType": "uint256",
          "name": "tokenId",
          "type": "uint256"
        }
      ],
      "name": "Transfer",
      "type": "event"
    },
    {
      "inputs": [
        {
          "internalType": "address",
          "name": "to",
          "type": "address"
        },
        {
          "internalType": "uint256",
          "name": "tokenId",
          "type": "uint256"
        }
      ],
      "name": "approve",
      "outputs": [],
      "stateMutability": "nonpayable",
      "type": "function"
    },
    {
      "inputs": [
        {
          "internalType": "address",
          "name": "owner",
          "type": "address"
        }
      ],
      "name": "balanceOf",
      "outputs": [
        {
          "internalType": "uint256",
          "name": "",
          "type": "uint256"
        }
      ],
      "stateMutability": "view",
      "type": "function"
    },
    {
      "inputs": [
        {
          "internalType": "uint256",
          "name": "tokenId",
          "type": "uint256"
        }
      ],
      "name": "getApproved",
      "outputs": [
        {
          "internalType": "address",
          "name": "",
          "type": "address"
        }
      ],
      "stateMutability": "view",
      "type": "function"
    },
    {
      "inputs": [
        {
          "internalType": "address",
          "name": "owner",
          "type": "address"
        },
        {
          "internalType": "address",
          "name": "operator",
          "type": "address"
        }
      ],
      "name": "isApprovedForAll",
      "outputs": [
        {
          "internalType": "bool",
          "name": "",
          "type": "bool"
        }
      ],
      "stateMutability": "view",
      "type": "function"
    },
    {
      "inputs": [
        {
          "internalType": "uint256",
          "name": "tokenId",
          "type": "uint256"
        }
      ],
      "name": "levelUp",
      "outputs": [],
      "stateMutability": "nonpayable",
      "type": "function"
    },
    {
      "inputs": [],
      "name": "mintWeapon",
      "outputs": [],
      "stateMutability": "nonpayable",
      "type": "function"
    },
    {
      "inputs": [],
      "name": "name",
      "outputs": [
        {
          "internalType": "string",
          "name": "",
          "type": "string"
        }
      ],
      "stateMutability": "view",
      "type": "function"
    },
    {
      "inputs": [],
      "name": "owner",
      "outputs": [
        {
          "internalType": "address",
          "name": "",
          "type": "address"
        }
      ],
      "stateMutability": "view",
      "type": "function"
    },
    {
      "inputs": [
        {
          "internalType": "uint256",
          "name": "tokenId",
          "type": "uint256"
        }
      ],
      "name": "ownerOf",
      "outputs": [
        {
          "internalType": "address",
          "name": "",
          "type": "address"
        }
      ],
      "stateMutability": "view",
      "type": "function"
    },
    {
      "inputs": [],
      "name": "renounceOwnership",
      "outputs": [],
      "stateMutability": "nonpayable",
      "type": "function"
    },
    {
      "inputs": [
        {
          "internalType": "address",
          "name": "from",
          "type": "address"
        },
        {
          "internalType": "address",
          "name": "to",
          "type": "address"
        },
        {
          "internalType": "uint256",
          "name": "tokenId",
          "type": "uint256"
        }
      ],
      "name": "safeTransferFrom",
      "outputs": [],
      "stateMutability": "nonpayable",
      "type": "function"
    },
    {
      "inputs": [
        {
          "internalType": "address",
          "name": "from",
          "type": "address"
        },
        {
          "internalType": "address",
          "name": "to",
          "type": "address"
        },
        {
          "internalType": "uint256",
          "name": "tokenId",
          "type": "uint256"
        },
        {
          "internalType": "bytes",
          "name": "data",
          "type": "bytes"
        }
      ],
      "name": "safeTransferFrom",
      "outputs": [],
      "stateMutability": "nonpayable",
      "type": "function"
    },
    {
      "inputs": [
        {
          "internalType": "address",
          "name": "operator",
          "type": "address"
        },
        {
          "internalType": "bool",
          "name": "approved",
          "type": "bool"
        }
      ],
      "name": "setApprovalForAll",
      "outputs": [],
      "stateMutability": "nonpayable",
      "type": "function"
    },
    {
      "inputs": [
        {
          "internalType": "bytes4",
          "name": "interfaceId",
          "type": "bytes4"
        }
      ],
      "name": "supportsInterface",
      "outputs": [
        {
          "internalType": "bool",
          "name": "",
          "type": "bool"
        }
      ],
      "stateMutability": "view",
      "type": "function"
    },
    {
      "inputs": [],
      "name": "symbol",
      "outputs": [
        {
          "internalType": "string",
          "name": "",
          "type": "string"
        }
      ],
      "stateMutability": "view",
      "type": "function"
    },
    {
      "inputs": [],
      "name": "tokenCounter",
      "outputs": [
        {
          "internalType": "uint256",
          "name": "",
          "type": "uint256"
        }
      ],
      "stateMutability": "view",
      "type": "function"
    },
    {
      "inputs": [
        {
          "internalType": "uint256",
          "name": "tokenId",
          "type": "uint256"
        }
      ],
      "name": "tokenURI",
      "outputs": [
        {
          "internalType": "string",
          "name": "",
          "type": "string"
        }
      ],
      "stateMutability": "view",
      "type": "function"
    },
    {
      "inputs": [
        {
          "internalType": "address",
          "name": "from",
          "type": "address"
        },
        {
          "internalType": "address",
          "name": "to",
          "type": "address"
        },
        {
          "internalType": "uint256",
          "name": "tokenId",
          "type": "uint256"
        }
      ],
      "name": "transferFrom",
      "outputs": [],
      "stateMutability": "nonpayable",
      "type": "function"
    },
    {
      "inputs": [
        {
          "internalType": "address",
          "name": "newOwner",
          "type": "address"
        }
      ],
      "name": "transferOwnership",
      "outputs": [],
      "stateMutability": "nonpayable",
      "type": "function"
    },
    {
      "inputs": [
        {
          "internalType": "uint256",
          "name": "",
          "type": "uint256"
        }
      ],
      "name": "weaponLevels",
      "outputs": [
        {
          "internalType": "uint256",
          "name": "",
          "type": "uint256"
        }
      ],
      "stateMutability": "view",
      "type": "function"
    }
  ],
  "bytecode": "0x608060405234801561001057600080fd5b50336040518060400160405280600a81526020017f46505320576561706f6e000000000000000000000000000000000000000000008152506040518060400160405280600381526020017f47554e0000000000000000000000000000000000000000000000000000000000815250816000908161008d9190610445565b50806001908161009d9190610445565b505050600073ffffffffffffffffffffffffffffffffffffffff168173ffffffffffffffffffffffffffffffffffffffff16036101125760006040517f1e4fbdf70000000000000000000000000000000000000000000000000000000081526004016101099190610558565b60405180910390fd5b6101218161012f60201b60201c565b506000600881905550610573565b6000600760009054906101000a900473ffffffffffffffffffffffffffffffffffffffff16905081600760006101000a81548173ffffffffffffffffffffffffffffffffffffffff021916908373ffffffffffffffffffffffffffffffffffffffff1602179055508173ffffffffffffffffffffffffffffffffffffffff168173ffffffffffffffffffffffffffffffffffffffff167f8be0079c531659141344cd1fd0a4f28419497f9722a3daafe3b4186f6b6457e060405160405180910390a35050565b600081519050919050565b7f4e487b7100000000000000000000000000000000000000000000000000000000600052604160045260246000fd5b7f4e487b7100000000000000000000000000000000000000000000000000000000600052602260045260246000fd5b6000600282049050600182168061027657607f821691505b6020821081036102895761028861022f565b5b50919050565b60008190508160005260206000209050919050565b60006020601f8301049050919050565b600082821b905092915050565b6000600883026102f17fffffffffffffffffffffffffffffffffffffffffffffffffffffffffffffffff826102b4565b6102fb86836102b4565b95508019841693508086168417925050509392505050565b6000819050919050565b6000819050919050565b600061034261033d61033884610313565b61031d565b610313565b9050919050565b6000819050919050565b61035c83610327565b61037061036882610349565b8484546102c1565b825550505050565b600090565b610385610378565b610390818484610353565b505050565b5b818110156103b4576103a960008261037d565b600181019050610396565b5050565b601f8211156103f9576103ca8161028f565b6103d3846102a4565b810160208510156103e2578190505b6103f66103ee856102a4565b830182610395565b50505b505050565b600082821c905092915050565b600061041c600019846008026103fe565b1980831691505092915050565b6000610435838361040b565b9150826002028217905092915050565b61044e826101f5565b67ffffffffffffffff81111561046757610466610200565b5b610471825461025e565b61047c8282856103b8565b600060209050601f8311600181146104af576000841561049d578287015190505b6104a78582610429565b86555061050f565b601f1984166104bd8661028f565b60005b828110156104e5578489015182556001820191506020850194506020810190506104c0565b8683101561050257848901516104fe601f89168261040b565b8355505b6001600288020188555050505b505050505050565b600073ffffffffffffffffffffffffffffffffffffffff82169050919050565b600061054282610517565b9050919050565b61055281610537565b82525050565b600060208201905061056d6000830184610549565b92915050565b6127dc806105826000396000f3fe608060405234801561001057600080fd5b506004361061012c5760003560e01c8063715018a6116100ad578063c87b56dd11610071578063c87b56dd1461032d578063d082e3811461035d578063e6c6b7f01461037b578063e985e9c514610385578063f2fde38b146103b55761012c565b8063715018a6146102af5780638da5cb5b146102b957806395d89b41146102d7578063a22cb465146102f5578063b88d4fde146103115761012c565b806323b872dd116100f457806323b872dd146101e757806342842e0e14610203578063522dbf821461021f5780636352211e1461024f57806370a082311461027f5761012c565b806301ffc9a71461013157806306fdde0314610161578063081812fc1461017f578063095ea7b3146101af5780630ce90ec2146101cb575b600080fd5b61014b60048036038101906101469190611c6f565b6103d1565b6040516101589190611cb7565b60405180910390f35b610169610432565b6040516101769190611d62565b60405180910390f35b61019960048036038101906101949190611dba565b6104c4565b6040516101a69190611e28565b60405180910390f35b6101c960048036038101906101c49190611e6f565b6104e0565b005b6101e560048036038101906101e09190611dba565b6104f6565b005b61020160048036038101906101fc9190611eaf565b6105ea565b005b61021d60048036038101906102189190611eaf565b6106ec565b005b61023960048036038101906102349190611dba565b61070c565b6040516102469190611f11565b60405180910390f35b61026960048036038101906102649190611dba565b610724565b6040516102769190611e28565b60405180910390f35b61029960048036038101906102949190611f2c565b610736565b6040516102a69190611f11565b60405180910390f35b6102b76107f0565b005b6102c1610804565b6040516102ce9190611e28565b60405180910390f35b6102df61082e565b6040516102ec9190611d62565b60405180910390f35b61030f600480360381019061030a9190611f85565b6108c0565b005b61032b600480360381019061032691906120fa565b6108d6565b005b61034760048036038101906103429190611dba565b6108fb565b6040516103549190611d62565b60405180910390f35b610365610a0e565b6040516103729190611f11565b60405180910390f35b610383610a14565b005b61039f600480360381019061039a919061217d565b610a78565b6040516103ac9190611cb7565b60405180910390f35b6103cf60048036038101906103ca9190611f2c565b610b0c565b005b6000634906490660e01b7bffffffffffffffffffffffffffffffffffffffffffffffffffffffff1916827bffffffffffffffffffffffffffffffffffffffffffffffffffffffff1916148061042b575061042a82610b92565b5b9050919050565b606060008054610441906121ec565b80601f016020809104026020016040519081016040528092919081815260200182805461046d906121ec565b80156104ba5780601f1061048f576101008083540402835291602001916104ba565b820191906000526020600020905b81548152906001019060200180831161049d57829003601f168201915b5050505050905090565b60006104cf82610c74565b506104d982610cfc565b9050919050565b6104f282826104ed610d39565b610d41565b5050565b3373ffffffffffffffffffffffffffffffffffffffff1661051682610724565b73ffffffffffffffffffffffffffffffffffffffff161461056c576040517f08c379a000000000000000000000000000000000000000000000000000000000815260040161056390612269565b60405180910390fd5b60006009600083815260200190815260200160002054905060018161059191906122b8565b600960008481526020019081526020016000208190555060026009600084815260200190815260200160002054106105e6576105e58260405180606001604052806035815260200161277260359139610d53565b5b5050565b600073ffffffffffffffffffffffffffffffffffffffff168273ffffffffffffffffffffffffffffffffffffffff160361065c5760006040517f64a0ae920000000000000000000000000000000000000000000000000000000081526004016106539190611e28565b60405180910390fd5b6000610670838361066b610d39565b610daf565b90508373ffffffffffffffffffffffffffffffffffffffff168173ffffffffffffffffffffffffffffffffffffffff16146106e6578382826040517f64283d7b0000000000000000000000000000000000000000000000000000000081526004016106dd939291906122ec565b60405180910390fd5b50505050565b610707838383604051806020016040528060008152506108d6565b505050565b60096020528060005260406000206000915090505481565b600061072f82610c74565b9050919050565b60008073ffffffffffffffffffffffffffffffffffffffff168273ffffffffffffffffffffffffffffffffffffffff16036107a95760006040517f89c62b640000000000000000000000000000000000000000000000000000000081526004016107a09190611e28565b60405180910390fd5b600360008373ffffffffffffffffffffffffffffffffffffffff1673ffffffffffffffffffffffffffffffffffffffff168152602001908152602001600020549050919050565b6107f8610fc9565b6108026000611050565b565b6000600760009054906101000a900473ffffffffffffffffffffffffffffffffffffffff16905090565b60606001805461083d906121ec565b80601f0160208091040260200160405190810160405280929190818152602001828054610869906121ec565b80156108b65780601f1061088b576101008083540402835291602001916108b6565b820191906000526020600020905b81548152906001019060200180831161089957829003601f168201915b5050505050905090565b6108d26108cb610d39565b8383611116565b5050565b6108e18484846105ea565b6108f56108ec610d39565b85858585611285565b50505050565b606061090682610c74565b506000600660008481526020019081526020016000208054610927906121ec565b80601f0160208091040260200160405190810160405280929190818152602001828054610953906121ec565b80156109a05780601f10610975576101008083540402835291602001916109a0565b820191906000526020600020905b81548152906001019060200180831161098357829003601f168201915b5050505050905060006109b1611436565b905060008151036109c6578192505050610a09565b6000825111156109fb5780826040516020016109e392919061235f565b60405160208183030381529060405292505050610a09565b610a048461144d565b925050505b919050565b60085481565b60006008549050610a2533826114b6565b60016009600083815260200190815260200160002081905550610a608160405180606001604052806035815260200161273d60359139610d53565b6001600854610a6f91906122b8565b60088190555050565b6000600560008473ffffffffffffffffffffffffffffffffffffffff1673ffffffffffffffffffffffffffffffffffffffff16815260200190815260200160002060008373ffffffffffffffffffffffffffffffffffffffff1673ffffffffffffffffffffffffffffffffffffffff16815260200190815260200160002060009054906101000a900460ff16905092915050565b610b14610fc9565b600073ffffffffffffffffffffffffffffffffffffffff168173ffffffffffffffffffffffffffffffffffffffff1603610b865760006040517f1e4fbdf7000000000000000000000000000000000000000000000000000000008152600401610b7d9190611e28565b60405180910390fd5b610b8f81611050565b50565b60007f80ac58cd000000000000000000000000000000000000000000000000000000007bffffffffffffffffffffffffffffffffffffffffffffffffffffffff1916827bffffffffffffffffffffffffffffffffffffffffffffffffffffffff19161480610c5d57507f5b5e139f000000000000000000000000000000000000000000000000000000007bffffffffffffffffffffffffffffffffffffffffffffffffffffffff1916827bffffffffffffffffffffffffffffffffffffffffffffffffffffffff1916145b80610c6d5750610c6c826114d4565b5b9050919050565b600080610c808361153e565b9050600073ffffffffffffffffffffffffffffffffffffffff168173ffffffffffffffffffffffffffffffffffffffff1603610cf357826040517f7e273289000000000000000000000000000000000000000000000000000000008152600401610cea9190611f11565b60405180910390fd5b80915050919050565b60006004600083815260200190815260200160002060009054906101000a900473ffffffffffffffffffffffffffffffffffffffff169050919050565b600033905090565b610d4e838383600161157b565b505050565b80600660008481526020019081526020016000209081610d73919061252f565b507ff8e1a15aba9398e019f0b49df1a4fde98ee17ae345cb5f6b5e2c27f5033e8ce782604051610da39190611f11565b60405180910390a15050565b600080610dbb8461153e565b9050600073ffffffffffffffffffffffffffffffffffffffff168373ffffffffffffffffffffffffffffffffffffffff1614610dfd57610dfc818486611740565b5b600073ffffffffffffffffffffffffffffffffffffffff168173ffffffffffffffffffffffffffffffffffffffff1614610e8e57610e3f60008560008061157b565b6001600360008373ffffffffffffffffffffffffffffffffffffffff1673ffffffffffffffffffffffffffffffffffffffff168152602001908152602001600020600082825403925050819055505b600073ffffffffffffffffffffffffffffffffffffffff168573ffffffffffffffffffffffffffffffffffffffff1614610f11576001600360008773ffffffffffffffffffffffffffffffffffffffff1673ffffffffffffffffffffffffffffffffffffffff168152602001908152602001600020600082825401925050819055505b846002600086815260200190815260200160002060006101000a81548173ffffffffffffffffffffffffffffffffffffffff021916908373ffffffffffffffffffffffffffffffffffffffff160217905550838573ffffffffffffffffffffffffffffffffffffffff168273ffffffffffffffffffffffffffffffffffffffff167fddf252ad1be2c89b69c2b068fc378daa952ba7f163c4a11628f55a4df523b3ef60405160405180910390a4809150509392505050565b610fd1610d39565b73ffffffffffffffffffffffffffffffffffffffff16610fef610804565b73ffffffffffffffffffffffffffffffffffffffff161461104e57611012610d39565b6040517f118cdaa70000000000000000000000000000000000000000000000000000000081526004016110459190611e28565b60405180910390fd5b565b6000600760009054906101000a900473ffffffffffffffffffffffffffffffffffffffff16905081600760006101000a81548173ffffffffffffffffffffffffffffffffffffffff021916908373ffffffffffffffffffffffffffffffffffffffff1602179055508173ffffffffffffffffffffffffffffffffffffffff168173ffffffffffffffffffffffffffffffffffffffff167f8be0079c531659141344cd1fd0a4f28419497f9722a3daafe3b4186f6b6457e060405160405180910390a35050565b600073ffffffffffffffffffffffffffffffffffffffff168273ffffffffffffffffffffffffffffffffffffffff160361118757816040517f5b08ba1800000000000000000000000000000000000000000000000000000000815260040161117e9190611e28565b60405180910390fd5b80600560008573ffffffffffffffffffffffffffffffffffffffff1673ffffffffffffffffffffffffffffffffffffffff16815260200190815260200160002060008473ffffffffffffffffffffffffffffffffffffffff1673ffffffffffffffffffffffffffffffffffffffff16815260200190815260200160002060006101000a81548160ff0219169083151502179055508173ffffffffffffffffffffffffffffffffffffffff168373ffffffffffffffffffffffffffffffffffffffff167f17307eab39ab6107e8899845ad3d59bd9653f200f220920489ca2b5937696c31836040516112789190611cb7565b60405180910390a3505050565b60008373ffffffffffffffffffffffffffffffffffffffff163b111561142f578273ffffffffffffffffffffffffffffffffffffffff1663150b7a02868685856040518563ffffffff1660e01b81526004016112e49493929190612656565b6020604051808303816000875af192505050801561132057506040513d601f19601f8201168201806040525081019061131d91906126b7565b60015b6113a4573d8060008114611350576040519150601f19603f3d011682016040523d82523d6000602084013e611355565b606091505b50600081510361139c57836040517f64a0ae920000000000000000000000000000000000000000000000000000000081526004016113939190611e28565b60405180910390fd5b805160208201fd5b63150b7a0260e01b7bffffffffffffffffffffffffffffffffffffffffffffffffffffffff1916817bffffffffffffffffffffffffffffffffffffffffffffffffffffffff19161461142d57836040517f64a0ae920000000000000000000000000000000000000000000000000000000081526004016114249190611e28565b60405180910390fd5b505b5050505050565b606060405180602001604052806000815250905090565b606061145882610c74565b506000611463611436565b9050600081511161148357604051806020016040528060008152506114ae565b8061148d84611804565b60405160200161149e92919061235f565b6040516020818303038152906040525b915050919050565b6114d08282604051806020016040528060008152506118d2565b5050565b60007f01ffc9a7000000000000000000000000000000000000000000000000000000007bffffffffffffffffffffffffffffffffffffffffffffffffffffffff1916827bffffffffffffffffffffffffffffffffffffffffffffffffffffffff1916149050919050565b60006002600083815260200190815260200160002060009054906101000a900473ffffffffffffffffffffffffffffffffffffffff169050919050565b80806115b45750600073ffffffffffffffffffffffffffffffffffffffff168273ffffffffffffffffffffffffffffffffffffffff1614155b156116e85760006115c484610c74565b9050600073ffffffffffffffffffffffffffffffffffffffff168373ffffffffffffffffffffffffffffffffffffffff161415801561162f57508273ffffffffffffffffffffffffffffffffffffffff168173ffffffffffffffffffffffffffffffffffffffff1614155b801561164257506116408184610a78565b155b1561168457826040517fa9fbf51f00000000000000000000000000000000000000000000000000000000815260040161167b9190611e28565b60405180910390fd5b81156116e657838573ffffffffffffffffffffffffffffffffffffffff168273ffffffffffffffffffffffffffffffffffffffff167f8c5be1e5ebec7d5bd14f71427d1e84f3dd0314c0f7b2291e5b200ac8c7c3b92560405160405180910390a45b505b836004600085815260200190815260200160002060006101000a81548173ffffffffffffffffffffffffffffffffffffffff021916908373ffffffffffffffffffffffffffffffffffffffff16021790555050505050565b61174b8383836118f6565b6117ff57600073ffffffffffffffffffffffffffffffffffffffff168373ffffffffffffffffffffffffffffffffffffffff16036117c057806040517f7e2732890000000000000000000000000000000000000000000000000000000081526004016117b79190611f11565b60405180910390fd5b81816040517f177e802f0000000000000000000000000000000000000000000000000000000081526004016117f69291906126e4565b60405180910390fd5b505050565b606060006001611813846119b7565b01905060008167ffffffffffffffff81111561183257611831611fcf565b5b6040519080825280601f01601f1916602001820160405280156118645781602001600182028036833780820191505090505b509050600082602083010190505b6001156118c7578080600190039150507f3031323334353637383961626364656600000000000000000000000000000000600a86061a8153600a85816118bb576118ba61270d565b5b04945060008503611872575b819350505050919050565b6118dc8383611b0a565b6118f16118e7610d39565b6000858585611285565b505050565b60008073ffffffffffffffffffffffffffffffffffffffff168373ffffffffffffffffffffffffffffffffffffffff16141580156119ae57508273ffffffffffffffffffffffffffffffffffffffff168473ffffffffffffffffffffffffffffffffffffffff16148061196f575061196e8484610a78565b5b806119ad57508273ffffffffffffffffffffffffffffffffffffffff1661199583610cfc565b73ffffffffffffffffffffffffffffffffffffffff16145b5b90509392505050565b600080600090507a184f03e93ff9f4daa797ed6e38ed64bf6a1f0100000000000000008310611a15577a184f03e93ff9f4daa797ed6e38ed64bf6a1f0100000000000000008381611a0b57611a0a61270d565b5b0492506040810190505b6d04ee2d6d415b85acef81000000008310611a52576d04ee2d6d415b85acef81000000008381611a4857611a4761270d565b5b0492506020810190505b662386f26fc100008310611a8157662386f26fc100008381611a7757611a7661270d565b5b0492506010810190505b6305f5e1008310611aaa576305f5e1008381611aa057611a9f61270d565b5b0492506008810190505b6127108310611acf576127108381611ac557611ac461270d565b5b0492506004810190505b60648310611af25760648381611ae857611ae761270d565b5b0492506002810190505b600a8310611b01576001810190505b80915050919050565b600073ffffffffffffffffffffffffffffffffffffffff168273ffffffffffffffffffffffffffffffffffffffff1603611b7c5760006040517f64a0ae92000000000000000000000000000000000000000000000000000000008152600401611b739190611e28565b60405180910390fd5b6000611b8a83836000610daf565b9050600073ffffffffffffffffffffffffffffffffffffffff168173ffffffffffffffffffffffffffffffffffffffff1614611bfe5760006040517f73c6ac6e000000000000000000000000000000000000000000000000000000008152600401611bf59190611e28565b60405180910390fd5b505050565b6000604051905090565b600080fd5b600080fd5b60007fffffffff0000000000000000000000000000000000000000000000000000000082169050919050565b611c4c81611c17565b8114611c5757600080fd5b50565b600081359050611c6981611c43565b92915050565b600060208284031215611c8557611c84611c0d565b5b6000611c9384828501611c5a565b91505092915050565b60008115159050919050565b611cb181611c9c565b82525050565b6000602082019050611ccc6000830184611ca8565b92915050565b600081519050919050565b600082825260208201905092915050565b60005b83811015611d0c578082015181840152602081019050611cf1565b60008484015250505050565b6000601f19601f8301169050919050565b6000611d3482611cd2565b611d3e8185611cdd565b9350611d4e818560208601611cee565b611d5781611d18565b840191505092915050565b60006020820190508181036000830152611d7c8184611d29565b905092915050565b6000819050919050565b611d9781611d84565b8114611da257600080fd5b50565b600081359050611db481611d8e565b92915050565b600060208284031215611dd057611dcf611c0d565b5b6000611dde84828501611da5565b91505092915050565b600073ffffffffffffffffffffffffffffffffffffffff82169050919050565b6000611e1282611de7565b9050919050565b611e2281611e07565b82525050565b6000602082019050611e3d6000830184611e19565b92915050565b611e4c81611e07565b8114611e5757600080fd5b50565b600081359050611e6981611e43565b92915050565b60008060408385031215611e8657611e85611c0d565b5b6000611e9485828601611e5a565b9250506020611ea585828601611da5565b9150509250929050565b600080600060608486031215611ec857611ec7611c0d565b5b6000611ed686828701611e5a565b9350506020611ee786828701611e5a565b9250506040611ef886828701611da5565b9150509250925092565b611f0b81611d84565b82525050565b6000602082019050611f266000830184611f02565b92915050565b600060208284031215611f4257611f41611c0d565b5b6000611f5084828501611e5a565b91505092915050565b611f6281611c9c565b8114611f6d57600080fd5b50565b600081359050611f7f81611f59565b92915050565b60008060408385031215611f9c57611f9b611c0d565b5b6000611faa85828601611e5a565b9250506020611fbb85828601611f70565b9150509250929050565b600080fd5b600080fd5b7f4e487b7100000000000000000000000000000000000000000000000000000000600052604160045260246000fd5b61200782611d18565b810181811067ffffffffffffffff8211171561202657612025611fcf565b5b80604052505050565b6000612039611c03565b90506120458282611ffe565b919050565b600067ffffffffffffffff82111561206557612064611fcf565b5b61206e82611d18565b9050602081019050919050565b82818337600083830152505050565b600061209d6120988461204a565b61202f565b9050828152602081018484840111156120b9576120b8611fca565b5b6120c484828561207b565b509392505050565b600082601f8301126120e1576120e0611fc5565b5b81356120f184826020860161208a565b91505092915050565b6000806000806080858703121561211457612113611c0d565b5b600061212287828801611e5a565b945050602061213387828801611e5a565b935050604061214487828801611da5565b925050606085013567ffffffffffffffff81111561216557612164611c12565b5b612171878288016120cc565b91505092959194509250565b6000806040838503121561219457612193611c0d565b5b60006121a285828601611e5a565b92505060206121b385828601611e5a565b9150509250929050565b7f4e487b7100000000000000000000000000000000000000000000000000000000600052602260045260246000fd5b6000600282049050600182168061220457607f821691505b602082108103612217576122166121bd565b5b50919050565b7f4e6f7420796f75722067756e2100000000000000000000000000000000000000600082015250565b6000612253600d83611cdd565b915061225e8261221d565b602082019050919050565b6000602082019050818103600083015261228281612246565b9050919050565b7f4e487b7100000000000000000000000000000000000000000000000000000000600052601160045260246000fd5b60006122c382611d84565b91506122ce83611d84565b92508282019050808211156122e6576122e5612289565b5b92915050565b60006060820190506123016000830186611e19565b61230e6020830185611f02565b61231b6040830184611e19565b949350505050565b600081905092915050565b600061233982611cd2565b6123438185612323565b9350612353818560208601611cee565b80840191505092915050565b600061236b828561232e565b9150612377828461232e565b91508190509392505050565b60008190508160005260206000209050919050565b60006020601f8301049050919050565b600082821b905092915050565b6000600883026123e57fffffffffffffffffffffffffffffffffffffffffffffffffffffffffffffffff826123a8565b6123ef86836123a8565b95508019841693508086168417925050509392505050565b6000819050919050565b600061242c61242761242284611d84565b612407565b611d84565b9050919050565b6000819050919050565b61244683612411565b61245a61245282612433565b8484546123b5565b825550505050565b600090565b61246f612462565b61247a81848461243d565b505050565b5b8181101561249e57612493600082612467565b600181019050612480565b5050565b601f8211156124e3576124b481612383565b6124bd84612398565b810160208510156124cc578190505b6124e06124d885612398565b83018261247f565b50505b505050565b600082821c905092915050565b6000612506600019846008026124e8565b1980831691505092915050565b600061251f83836124f5565b9150826002028217905092915050565b61253882611cd2565b67ffffffffffffffff81111561255157612550611fcf565b5b61255b82546121ec565b6125668282856124a2565b600060209050601f8311600181146125995760008415612587578287015190505b6125918582612513565b8655506125f9565b601f1984166125a786612383565b60005b828110156125cf578489015182556001820191506020850194506020810190506125aa565b868310156125ec57848901516125e8601f8916826124f5565b8355505b6001600288020188555050505b505050505050565b600081519050919050565b600082825260208201905092915050565b600061262882612601565b612632818561260c565b9350612642818560208601611cee565b61264b81611d18565b840191505092915050565b600060808201905061266b6000830187611e19565b6126786020830186611e19565b6126856040830185611f02565b8181036060830152612697818461261d565b905095945050505050565b6000815190506126b181611c43565b92915050565b6000602082840312156126cd576126cc611c0d565b5b60006126db848285016126a2565b91505092915050565b60006040820190506126f96000830185611e19565b6127066020830184611f02565b9392505050565b7f4e487b7100000000000000000000000000000000000000000000000000000000600052601260045260246000fdfe697066733a2f2f516d4e7252536d506437437a7462624b6b4a584b6762675a7655446969626451704e506f4b464c4d6e4142714433697066733a2f2f516d65714d7750634c376a784d386e5964313875543250324d784d6d614656433147775038535a39676b7a46576aa2646970667358221220d43aed1f54271cfe20dbc7d9128fe1d1d813c365ae73563be6d1b90f674e560b64736f6c634300081c0033",
  "linkReferences": {},
  "deployedLinkReferences": {}
}