{
  "_format": "hh-sol-artifact-1",
  "contractName": "AIWeapon",
  "sourceName": "contracts/AIWeapon.sol",
  "abi": [
    {
      "inputs": [
        {
          "internalType": "address",
          "name": "_tokenAddress",
          "type": "address"
        }
      ],
      "stateMutability": "nonpayable",
      "type": "constructor"
    },
    {
      "inputs": [
        {
          "internalType": "address",
          "name": "sender",
          "type": "address"
        },
        {
          "internalType": "uint256",
          "name": "tokenId",
          "type": "uint256"
        },
        {
          "internalType": "address",
          "name": "owner",
          "type": "address"
        }
      ],
      "name": "ERC721IncorrectOwner",
      "type": "error"
    },
    {
      "inputs": [
        {
          "internalType": "address",
          "name": "operator",
          "type": "address"
        },
        {
          "internalType": "uint256",
          "name": "tokenId",
          "type": "uint256"
        }
      ],
      "name": "ERC721InsufficientApproval",
      "type": "error"
    },
    {
      "inputs": [
        {
          "internalType": "address",
          "name": "approver",
          "type": "address"
        }
      ],
      "name": "ERC721InvalidApprover",
      "type": "error"
    },
    {
      "inputs": [
        {
          "internalType": "address",
          "name": "operator",
          "type": "address"
        }
      ],
      "name": "ERC721InvalidOperator",
      "type": "error"
    },
    {
      "inputs": [
        {
          "internalType": "address",
          "name": "owner",
          "type": "address"
        }
      ],
      "name": "ERC721InvalidOwner",
      "type": "error"
    },
    {
      "inputs": [
        {
          "internalType": "address",
          "name": "receiver",
          "type": "address"
        }
      ],
      "name": "ERC721InvalidReceiver",
      "type": "error"
    },
    {
      "inputs": [
        {
          "internalType": "address",
          "name": "sender",
          "type": "address"
        }
      ],
      "name": "ERC721InvalidSender",
      "type": "error"
    },
    {
      "inputs": [
        {
          "internalType": "uint256",
          "name": "tokenId",
          "type": "uint256"
        }
      ],
      "name": "ERC721NonexistentToken",
      "type": "error"
    },
    {
      "anonymous": false,
      "inputs": [
        {
          "indexed": true,
          "internalType": "address",
          "name": "owner",
          "type": "address"
        },
        {
          "indexed": true,
          "internalType": "address",
          "name": "approved",
          "type": "address"
        },
        {
          "indexed": true,
          "internalType": "uint256",
          "name": "tokenId",
          "type": "uint256"
        }
      ],
      "name": "Approval",
      "type": "event"
    },
    {
      "anonymous": false,
      "inputs": [
        {
          "indexed": true,
          "internalType": "address",
          "name": "owner",
          "type": "address"
        },
        {
          "indexed": true,
          "internalType": "address",
          "name": "operator",
          "type": "address"
        },
        {
          "indexed": false,
          "internalType": "bool",
          "name": "approved",
          "type": "bool"
        }
      ],
      "name": "ApprovalForAll",
      "type": "event"
    },
    {
      "anonymous": false,
      "inputs": [
        {
          "indexed": false,
          "internalType": "uint256",
          "name": "_fromTokenId",
          "type": "uint256"
        },
        {
          "indexed": false,
          "internalType": "uint256",
          "name": "_toTokenId",
          "type": "uint256"
        }
      ],
      "name": "BatchMetadataUpdate",
      "type": "event"
    },
    {
      "anonymous": false,
      "inputs": [
        {
          "indexed": false,
          "internalType": "uint256",
          "name": "_tokenId",
          "type": "uint256"
        }
      ],
      "name": "MetadataUpdate",
      "type": "event"
    },
    {
      "anonymous": false,
      "inputs": [
        {
          "indexed": true,
          "internalType": "address",
          "name": "from",
          "type": "address"
        },
        {
          "indexed": true,
          "internalType": "address",
          "name": "to",
          "type": "address"
        },
        {
          "indexed": true,
          "internalType": "uint256",
          "name": "tokenId",
          "type": "uint256"
        }
      ],
      "name": "Transfer",
      "type": "event"
    },
    {
      "inputs": [
        {
          "internalType": "address",
          "name": "to",
          "type": "address"
        },
        {
          "internalType": "uint256",
          "name": "tokenId",
          "type": "uint256"
        }
      ],
      "name": "approve",
      "outputs": [],
      "stateMutability": "nonpayable",
      "type": "function"
    },
    {
      "inputs": [
        {
          "internalType": "address",
          "name": "owner",
          "type": "address"
        }
      ],
      "name": "balanceOf",
      "outputs": [
        {
          "internalType": "uint256",
          "name": "",
          "type": "uint256"
        }
      ],
      "stateMutability": "view",
      "type": "function"
    },
    {
      "inputs": [],
      "name": "gameToken",
      "outputs": [
        {
          "internalType": "contract IERC20",
          "name": "",
          "type": "address"
        }
      ],
      "stateMutability": "view",
      "type": "function"
    },
    {
      "inputs": [
        {
          "internalType": "uint256",
          "name": "tokenId",
          "type": "uint256"
        }
      ],
      "name": "getApproved",
      "outputs": [
        {
          "internalType": "address",
          "name": "",
          "type": "address"
        }
      ],
      "stateMutability": "view",
      "type": "function"
    },
    {
      "inputs": [
        {
          "internalType": "address",
          "name": "owner",
          "type": "address"
        },
        {
          "internalType": "address",
          "name": "operator",
          "type": "address"
        }
      ],
      "name": "isApprovedForAll",
      "outputs": [
        {
          "internalType": "bool",
          "name": "",
          "type": "bool"
        }
      ],
      "stateMutability": "view",
      "type": "function"
    },
    {
      "inputs": [
        {
          "internalType": "string",
          "name": "_name",
          "type": "string"
        },
        {
          "internalType": "string",
          "name": "_desc",
          "type": "string"
        },
        {
          "internalType": "uint256",
          "name": "_level",
          "type": "uint256"
        },
        {
          "internalType": "string",
          "name": "_svgCode",
          "type": "string"
        }
      ],
      "name": "mintAIWeapon",
      "outputs": [],
      "stateMutability": "nonpayable",
      "type": "function"
    },
    {
      "inputs": [],
      "name": "name",
      "outputs": [
        {
          "internalType": "string",
          "name": "",
          "type": "string"
        }
      ],
      "stateMutability": "view",
      "type": "function"
    },
    {
      "inputs": [
        {
          "internalType": "uint256",
          "name": "tokenId",
          "type": "uint256"
        }
      ],
      "name": "ownerOf",
      "outputs": [
        {
          "internalType": "address",
          "name": "",
          "type": "address"
        }
      ],
      "stateMutability": "view",
      "type": "function"
    },
    {
      "inputs": [
        {
          "internalType": "address",
          "name": "from",
          "type": "address"
        },
        {
          "internalType": "address",
          "name": "to",
          "type": "address"
        },
        {
          "internalType": "uint256",
          "name": "tokenId",
          "type": "uint256"
        }
      ],
      "name": "safeTransferFrom",
      "outputs": [],
      "stateMutability": "nonpayable",
      "type": "function"
    },
    {
      "inputs": [
        {
          "internalType": "address",
          "name": "from",
          "type": "address"
        },
        {
          "internalType": "address",
          "name": "to",
          "type": "address"
        },
        {
          "internalType": "uint256",
          "name": "tokenId",
          "type": "uint256"
        },
        {
          "internalType": "bytes",
          "name": "data",
          "type": "bytes"
        }
      ],
      "name": "safeTransferFrom",
      "outputs": [],
      "stateMutability": "nonpayable",
      "type": "function"
    },
    {
      "inputs": [
        {
          "internalType": "address",
          "name": "operator",
          "type": "address"
        },
        {
          "internalType": "bool",
          "name": "approved",
          "type": "bool"
        }
      ],
      "name": "setApprovalForAll",
      "outputs": [],
      "stateMutability": "nonpayable",
      "type": "function"
    },
    {
      "inputs": [
        {
          "internalType": "bytes4",
          "name": "interfaceId",
          "type": "bytes4"
        }
      ],
      "name": "supportsInterface",
      "outputs": [
        {
          "internalType": "bool",
          "name": "",
          "type": "bool"
        }
      ],
      "stateMutability": "view",
      "type": "function"
    },
    {
      "inputs": [],
      "name": "symbol",
      "outputs": [
        {
          "internalType": "string",
          "name": "",
          "type": "string"
        }
      ],
      "stateMutability": "view",
      "type": "function"
    },
    {
      "inputs": [],
      "name": "tokenCounter",
      "outputs": [
        {
          "internalType": "uint256",
          "name": "",
          "type": "uint256"
        }
      ],
      "stateMutability": "view",
      "type": "function"
    },
    {
      "inputs": [
        {
          "internalType": "uint256",
          "name": "tokenId",
          "type": "uint256"
        }
      ],
      "name": "tokenURI",
      "outputs": [
        {
          "internalType": "string",
          "name": "",
          "type": "string"
        }
      ],
      "stateMutability": "view",
      "type": "function"
    },
    {
      "inputs": [
        {
          "internalType": "address",
          "name": "from",
          "type": "address"
        },
        {
          "internalType": "address",
          "name": "to",
          "type": "address"
        },
        {
          "internalType": "uint256",
          "name": "tokenId",
          "type": "uint256"
        }
      ],
      "name": "transferFrom",
      "outputs": [],
      "stateMutability": "nonpayable",
      "type": "function"
    },
    {
      "inputs": [
        {
          "internalType": "uint256",
          "name": "tokenId",
          "type": "uint256"
        }
      ],
      "name": "upgradeWeapon",
      "outputs": [],
      "stateMutability": "nonpayable",
      "type": "function"
    },
    {
      "inputs": [
        {
          "internalType": "uint256",
          "name": "",
          "type": "uint256"
        }
      ],
      "name": "weaponStats",
      "outputs": [
        {
          "internalType": "string",
          "name": "name",
          "type": "string"
        },
        {
          "internalType": "string",
          "name": "description",
          "type": "string"
        },
        {
          "internalType": "uint256",
          "name": "level",
          "type": "uint256"
        },
        {
          "internalType": "string",
          "name": "visual",
          "type": "string"
        }
      ],
      "stateMutability": "view",
      "type": "function"
    }
  ],
  "bytecode": "0x608060405234801561001057600080fd5b506040516136df3803806136df83398181016040528101906100329190610172565b6040518060400160405280600981526020017f414920576561706f6e00000000000000000000000000000000000000000000008152506040518060400160405280600381526020017f414957000000000000000000000000000000000000000000000000000000000081525081600090816100ad91906103ef565b5080600190816100bd91906103ef565b505050600060078190555080600860006101000a81548173ffffffffffffffffffffffffffffffffffffffff021916908373ffffffffffffffffffffffffffffffffffffffff160217905550506104c1565b600080fd5b600073ffffffffffffffffffffffffffffffffffffffff82169050919050565b600061013f82610114565b9050919050565b61014f81610134565b811461015a57600080fd5b50565b60008151905061016c81610146565b92915050565b6000602082840312156101885761018761010f565b5b60006101968482850161015d565b91505092915050565b600081519050919050565b7f4e487b7100000000000000000000000000000000000000000000000000000000600052604160045260246000fd5b7f4e487b7100000000000000000000000000000000000000000000000000000000600052602260045260246000fd5b6000600282049050600182168061022057607f821691505b602082108103610233576102326101d9565b5b50919050565b60008190508160005260206000209050919050565b60006020601f8301049050919050565b600082821b905092915050565b60006008830261029b7fffffffffffffffffffffffffffffffffffffffffffffffffffffffffffffffff8261025e565b6102a5868361025e565b95508019841693508086168417925050509392505050565b6000819050919050565b6000819050919050565b60006102ec6102e76102e2846102bd565b6102c7565b6102bd565b9050919050565b6000819050919050565b610306836102d1565b61031a610312826102f3565b84845461026b565b825550505050565b600090565b61032f610322565b61033a8184846102fd565b505050565b5b8181101561035e57610353600082610327565b600181019050610340565b5050565b601f8211156103a35761037481610239565b61037d8461024e565b8101602085101561038c578190505b6103a06103988561024e565b83018261033f565b50505b505050565b600082821c905092915050565b60006103c6600019846008026103a8565b1980831691505092915050565b60006103df83836103b5565b9150826002028217905092915050565b6103f88261019f565b67ffffffffffffffff811115610411576104106101aa565b5b61041b8254610208565b610426828285610362565b600060209050601f8311600181146104595760008415610447578287015190505b61045185826103d3565b8655506104b9565b601f19841661046786610239565b60005b8281101561048f5784890151825560018201915060208501945060208101905061046a565b868310156104ac57848901516104a8601f8916826103b5565b8355505b6001600288020188555050505b505050505050565b61320f806104d06000396000f3fe608060405234801561001057600080fd5b50600436106101165760003560e01c806395d89b41116100a2578063b88d4fde11610071578063b88d4fde146102f2578063c3dfdae61461030e578063c87b56dd1461032c578063d082e3811461035c578063e985e9c51461037a57610116565b806395d89b4114610269578063a22cb46514610287578063a7b6c247146102a3578063b3431b66146102bf57610116565b80631fee68d6116100e95780631fee68d6146101b557806323b872dd146101d157806342842e0e146101ed5780636352211e1461020957806370a082311461023957610116565b806301ffc9a71461011b57806306fdde031461014b578063081812fc14610169578063095ea7b314610199575b600080fd5b61013560048036038101906101309190611f58565b6103aa565b6040516101429190611fa0565b60405180910390f35b61015361040b565b604051610160919061204b565b60405180910390f35b610183600480360381019061017e91906120a3565b61049d565b6040516101909190612111565b60405180910390f35b6101b360048036038101906101ae9190612158565b6104b9565b005b6101cf60048036038101906101ca91906122cd565b6104cf565b005b6101eb60048036038101906101e69190612388565b610582565b005b61020760048036038101906102029190612388565b610684565b005b610223600480360381019061021e91906120a3565b6106a4565b6040516102309190612111565b60405180910390f35b610253600480360381019061024e91906123db565b6106b6565b6040516102609190612417565b60405180910390f35b610271610770565b60405161027e919061204b565b60405180910390f35b6102a1600480360381019061029c919061245e565b610802565b005b6102bd60048036038101906102b891906120a3565b610818565b005b6102d960048036038101906102d491906120a3565b6109b2565b6040516102e9949392919061249e565b60405180910390f35b61030c60048036038101906103079190612599565b610b7a565b005b610316610b9f565b604051610323919061267b565b60405180910390f35b610346600480360381019061034191906120a3565b610bc5565b604051610353919061204b565b60405180910390f35b610364610e49565b6040516103719190612417565b60405180910390f35b610394600480360381019061038f9190612696565b610e4f565b6040516103a19190611fa0565b60405180910390f35b6000634906490660e01b7bffffffffffffffffffffffffffffffffffffffffffffffffffffffff1916827bffffffffffffffffffffffffffffffffffffffffffffffffffffffff19161480610404575061040382610ee3565b5b9050919050565b60606000805461041a90612705565b80601f016020809104026020016040519081016040528092919081815260200182805461044690612705565b80156104935780601f1061046857610100808354040283529160200191610493565b820191906000526020600020905b81548152906001019060200180831161047657829003601f168201915b5050505050905090565b60006104a882610fc5565b506104b28261104d565b9050919050565b6104cb82826104c661108a565b611092565b5050565b600060075490506104e033826110a4565b60405180608001604052808681526020018581526020018481526020018381525060096000838152602001908152602001600020600082015181600001908161052991906128d8565b50602082015181600101908161053f91906128d8565b5060408201518160020155606082015181600301908161055f91906128d8565b5090505060076000815480929190610576906129d9565b91905055505050505050565b600073ffffffffffffffffffffffffffffffffffffffff168273ffffffffffffffffffffffffffffffffffffffff16036105f45760006040517f64a0ae920000000000000000000000000000000000000000000000000000000081526004016105eb9190612111565b60405180910390fd5b6000610608838361060361108a565b6110c2565b90508373ffffffffffffffffffffffffffffffffffffffff168173ffffffffffffffffffffffffffffffffffffffff161461067e578382826040517f64283d7b00000000000000000000000000000000000000000000000000000000815260040161067593929190612a21565b60405180910390fd5b50505050565b61069f83838360405180602001604052806000815250610b7a565b505050565b60006106af82610fc5565b9050919050565b60008073ffffffffffffffffffffffffffffffffffffffff168273ffffffffffffffffffffffffffffffffffffffff16036107295760006040517f89c62b640000000000000000000000000000000000000000000000000000000081526004016107209190612111565b60405180910390fd5b600360008373ffffffffffffffffffffffffffffffffffffffff1673ffffffffffffffffffffffffffffffffffffffff168152602001908152602001600020549050919050565b60606001805461077f90612705565b80601f01602080910402602001604051908101604052809291908181526020018280546107ab90612705565b80156107f85780601f106107cd576101008083540402835291602001916107f8565b820191906000526020600020905b8154815290600101906020018083116107db57829003601f168201915b5050505050905090565b61081461080d61108a565b83836112dc565b5050565b3373ffffffffffffffffffffffffffffffffffffffff16610838826106a4565b73ffffffffffffffffffffffffffffffffffffffff161461088e576040517f08c379a000000000000000000000000000000000000000000000000000000000815260040161088590612aa4565b60405180910390fd5b6000678ac7230489e8000090506000600860009054906101000a900473ffffffffffffffffffffffffffffffffffffffff1673ffffffffffffffffffffffffffffffffffffffff166323b872dd3330856040518463ffffffff1660e01b81526004016108fc93929190612ac4565b6020604051808303816000875af115801561091b573d6000803e3d6000fd5b505050506040513d601f19601f8201168201806040525081019061093f9190612b10565b905080610981576040517f08c379a000000000000000000000000000000000000000000000000000000000815260040161097890612baf565b60405180910390fd5b6009600084815260200190815260200160002060020160008154809291906109a8906129d9565b9190505550505050565b60096020528060005260406000206000915090508060000180546109d590612705565b80601f0160208091040260200160405190810160405280929190818152602001828054610a0190612705565b8015610a4e5780601f10610a2357610100808354040283529160200191610a4e565b820191906000526020600020905b815481529060010190602001808311610a3157829003601f168201915b505050505090806001018054610a6390612705565b80601f0160208091040260200160405190810160405280929190818152602001828054610a8f90612705565b8015610adc5780601f10610ab157610100808354040283529160200191610adc565b820191906000526020600020905b815481529060010190602001808311610abf57829003601f168201915b505050505090806002015490806003018054610af790612705565b80601f0160208091040260200160405190810160405280929190818152602001828054610b2390612705565b8015610b705780601f10610b4557610100808354040283529160200191610b70565b820191906000526020600020905b815481529060010190602001808311610b5357829003601f168201915b5050505050905084565b610b85848484610582565b610b99610b9061108a565b8585858561144b565b50505050565b600860009054906101000a900473ffffffffffffffffffffffffffffffffffffffff1681565b6060600060096000848152602001908152602001600020604051806080016040529081600082018054610bf790612705565b80601f0160208091040260200160405190810160405280929190818152602001828054610c2390612705565b8015610c705780601f10610c4557610100808354040283529160200191610c70565b820191906000526020600020905b815481529060010190602001808311610c5357829003601f168201915b50505050508152602001600182018054610c8990612705565b80601f0160208091040260200160405190810160405280929190818152602001828054610cb590612705565b8015610d025780601f10610cd757610100808354040283529160200191610d02565b820191906000526020600020905b815481529060010190602001808311610ce557829003601f168201915b5050505050815260200160028201548152602001600382018054610d2590612705565b80601f0160208091040260200160405190810160405280929190818152602001828054610d5190612705565b8015610d9e5780601f10610d7357610100808354040283529160200191610d9e565b820191906000526020600020905b815481529060010190602001808311610d8157829003601f168201915b50505050508152505090506000610db882606001516115fc565b604051602001610dc89190612c57565b6040516020818303038152906040529050600082600001518360200151610df28560400151611629565b84604051602001610e069493929190612eb3565b6040516020818303038152906040529050610e20816115fc565b604051602001610e309190612f95565b6040516020818303038152906040529350505050919050565b60075481565b6000600560008473ffffffffffffffffffffffffffffffffffffffff1673ffffffffffffffffffffffffffffffffffffffff16815260200190815260200160002060008373ffffffffffffffffffffffffffffffffffffffff1673ffffffffffffffffffffffffffffffffffffffff16815260200190815260200160002060009054906101000a900460ff16905092915050565b60007f80ac58cd000000000000000000000000000000000000000000000000000000007bffffffffffffffffffffffffffffffffffffffffffffffffffffffff1916827bffffffffffffffffffffffffffffffffffffffffffffffffffffffff19161480610fae57507f5b5e139f000000000000000000000000000000000000000000000000000000007bffffffffffffffffffffffffffffffffffffffffffffffffffffffff1916827bffffffffffffffffffffffffffffffffffffffffffffffffffffffff1916145b80610fbe5750610fbd826116f7565b5b9050919050565b600080610fd183611761565b9050600073ffffffffffffffffffffffffffffffffffffffff168173ffffffffffffffffffffffffffffffffffffffff160361104457826040517f7e27328900000000000000000000000000000000000000000000000000000000815260040161103b9190612417565b60405180910390fd5b80915050919050565b60006004600083815260200190815260200160002060009054906101000a900473ffffffffffffffffffffffffffffffffffffffff169050919050565b600033905090565b61109f838383600161179e565b505050565b6110be828260405180602001604052806000815250611963565b5050565b6000806110ce84611761565b9050600073ffffffffffffffffffffffffffffffffffffffff168373ffffffffffffffffffffffffffffffffffffffff16146111105761110f818486611987565b5b600073ffffffffffffffffffffffffffffffffffffffff168173ffffffffffffffffffffffffffffffffffffffff16146111a15761115260008560008061179e565b6001600360008373ffffffffffffffffffffffffffffffffffffffff1673ffffffffffffffffffffffffffffffffffffffff168152602001908152602001600020600082825403925050819055505b600073ffffffffffffffffffffffffffffffffffffffff168573ffffffffffffffffffffffffffffffffffffffff1614611224576001600360008773ffffffffffffffffffffffffffffffffffffffff1673ffffffffffffffffffffffffffffffffffffffff168152602001908152602001600020600082825401925050819055505b846002600086815260200190815260200160002060006101000a81548173ffffffffffffffffffffffffffffffffffffffff021916908373ffffffffffffffffffffffffffffffffffffffff160217905550838573ffffffffffffffffffffffffffffffffffffffff168273ffffffffffffffffffffffffffffffffffffffff167fddf252ad1be2c89b69c2b068fc378daa952ba7f163c4a11628f55a4df523b3ef60405160405180910390a4809150509392505050565b600073ffffffffffffffffffffffffffffffffffffffff168273ffffffffffffffffffffffffffffffffffffffff160361134d57816040517f5b08ba180000000000000000000000000000000000000000000000000000000081526004016113449190612111565b60405180910390fd5b80600560008573ffffffffffffffffffffffffffffffffffffffff1673ffffffffffffffffffffffffffffffffffffffff16815260200190815260200160002060008473ffffffffffffffffffffffffffffffffffffffff1673ffffffffffffffffffffffffffffffffffffffff16815260200190815260200160002060006101000a81548160ff0219169083151502179055508173ffffffffffffffffffffffffffffffffffffffff168373ffffffffffffffffffffffffffffffffffffffff167f17307eab39ab6107e8899845ad3d59bd9653f200f220920489ca2b5937696c318360405161143e9190611fa0565b60405180910390a3505050565b60008373ffffffffffffffffffffffffffffffffffffffff163b11156115f5578273ffffffffffffffffffffffffffffffffffffffff1663150b7a02868685856040518563ffffffff1660e01b81526004016114aa949392919061300c565b6020604051808303816000875af19250505080156114e657506040513d601f19601f820116820180604052508101906114e3919061306d565b60015b61156a573d8060008114611516576040519150601f19603f3d011682016040523d82523d6000602084013e61151b565b606091505b50600081510361156257836040517f64a0ae920000000000000000000000000000000000000000000000000000000081526004016115599190612111565b60405180910390fd5b805160208201fd5b63150b7a0260e01b7bffffffffffffffffffffffffffffffffffffffffffffffffffffffff1916817bffffffffffffffffffffffffffffffffffffffffffffffffffffffff1916146115f357836040517f64a0ae920000000000000000000000000000000000000000000000000000000081526004016115ea9190612111565b60405180910390fd5b505b5050505050565b60606116228260405180606001604052806040815260200161319a604091396001611a4b565b9050919050565b60606000600161163884611bdf565b01905060008167ffffffffffffffff811115611657576116566121a2565b5b6040519080825280601f01601f1916602001820160405280156116895781602001600182028036833780820191505090505b509050600082602083010190505b6001156116ec578080600190039150507f3031323334353637383961626364656600000000000000000000000000000000600a86061a8153600a85816116e0576116df61309a565b5b04945060008503611697575b819350505050919050565b60007f01ffc9a7000000000000000000000000000000000000000000000000000000007bffffffffffffffffffffffffffffffffffffffffffffffffffffffff1916827bffffffffffffffffffffffffffffffffffffffffffffffffffffffff1916149050919050565b60006002600083815260200190815260200160002060009054906101000a900473ffffffffffffffffffffffffffffffffffffffff169050919050565b80806117d75750600073ffffffffffffffffffffffffffffffffffffffff168273ffffffffffffffffffffffffffffffffffffffff1614155b1561190b5760006117e784610fc5565b9050600073ffffffffffffffffffffffffffffffffffffffff168373ffffffffffffffffffffffffffffffffffffffff161415801561185257508273ffffffffffffffffffffffffffffffffffffffff168173ffffffffffffffffffffffffffffffffffffffff1614155b801561186557506118638184610e4f565b155b156118a757826040517fa9fbf51f00000000000000000000000000000000000000000000000000000000815260040161189e9190612111565b60405180910390fd5b811561190957838573ffffffffffffffffffffffffffffffffffffffff168273ffffffffffffffffffffffffffffffffffffffff167f8c5be1e5ebec7d5bd14f71427d1e84f3dd0314c0f7b2291e5b200ac8c7c3b92560405160405180910390a45b505b836004600085815260200190815260200160002060006101000a81548173ffffffffffffffffffffffffffffffffffffffff021916908373ffffffffffffffffffffffffffffffffffffffff16021790555050505050565b61196d8383611d32565b61198261197861108a565b600085858561144b565b505050565b611992838383611e2b565b611a4657600073ffffffffffffffffffffffffffffffffffffffff168373ffffffffffffffffffffffffffffffffffffffff1603611a0757806040517f7e2732890000000000000000000000000000000000000000000000000000000081526004016119fe9190612417565b60405180910390fd5b81816040517f177e802f000000000000000000000000000000000000000000000000000000008152600401611a3d9291906130c9565b60405180910390fd5b505050565b60606000845103611a6d57604051806020016040528060008152509050611bd8565b600082611a9f576003600286516004611a8691906130f2565b611a909190613134565b611a9a9190613168565b611ac6565b600360028651611aaf9190613134565b611ab99190613168565b6004611ac591906130f2565b5b905060008167ffffffffffffffff811115611ae457611ae36121a2565b5b6040519080825280601f01601f191660200182016040528015611b165781602001600182028036833780820191505090505b50905060018501602082018788518901602081018051600082525b82841015611b8c576003840193508351603f8160121c168701518653600186019550603f81600c1c168701518653600186019550603f8160061c168701518653600186019550603f8116870151865360018601955050611b31565b8082528915611bcc5760038c510660018114611baf5760028114611bc257611bca565b603d6001870353603d6002870353611bca565b603d60018703535b505b50505050505080925050505b9392505050565b600080600090507a184f03e93ff9f4daa797ed6e38ed64bf6a1f0100000000000000008310611c3d577a184f03e93ff9f4daa797ed6e38ed64bf6a1f0100000000000000008381611c3357611c3261309a565b5b0492506040810190505b6d04ee2d6d415b85acef81000000008310611c7a576d04ee2d6d415b85acef81000000008381611c7057611c6f61309a565b5b0492506020810190505b662386f26fc100008310611ca957662386f26fc100008381611c9f57611c9e61309a565b5b0492506010810190505b6305f5e1008310611cd2576305f5e1008381611cc857611cc761309a565b5b0492506008810190505b6127108310611cf7576127108381611ced57611cec61309a565b5b0492506004810190505b60648310611d1a5760648381611d1057611d0f61309a565b5b0492506002810190505b600a8310611d29576001810190505b80915050919050565b600073ffffffffffffffffffffffffffffffffffffffff168273ffffffffffffffffffffffffffffffffffffffff1603611da45760006040517f64a0ae92000000000000000000000000000000000000000000000000000000008152600401611d9b9190612111565b60405180910390fd5b6000611db2838360006110c2565b9050600073ffffffffffffffffffffffffffffffffffffffff168173ffffffffffffffffffffffffffffffffffffffff1614611e265760006040517f73c6ac6e000000000000000000000000000000000000000000000000000000008152600401611e1d9190612111565b60405180910390fd5b505050565b60008073ffffffffffffffffffffffffffffffffffffffff168373ffffffffffffffffffffffffffffffffffffffff1614158015611ee357508273ffffffffffffffffffffffffffffffffffffffff168473ffffffffffffffffffffffffffffffffffffffff161480611ea45750611ea38484610e4f565b5b80611ee257508273ffffffffffffffffffffffffffffffffffffffff16611eca8361104d565b73ffffffffffffffffffffffffffffffffffffffff16145b5b90509392505050565b6000604051905090565b600080fd5b600080fd5b60007fffffffff0000000000000000000000000000000000000000000000000000000082169050919050565b611f3581611f00565b8114611f4057600080fd5b50565b600081359050611f5281611f2c565b92915050565b600060208284031215611f6e57611f6d611ef6565b5b6000611f7c84828501611f43565b91505092915050565b60008115159050919050565b611f9a81611f85565b82525050565b6000602082019050611fb56000830184611f91565b92915050565b600081519050919050565b600082825260208201905092915050565b60005b83811015611ff5578082015181840152602081019050611fda565b60008484015250505050565b6000601f19601f8301169050919050565b600061201d82611fbb565b6120278185611fc6565b9350612037818560208601611fd7565b61204081612001565b840191505092915050565b600060208201905081810360008301526120658184612012565b905092915050565b6000819050919050565b6120808161206d565b811461208b57600080fd5b50565b60008135905061209d81612077565b92915050565b6000602082840312156120b9576120b8611ef6565b5b60006120c78482850161208e565b91505092915050565b600073ffffffffffffffffffffffffffffffffffffffff82169050919050565b60006120fb826120d0565b9050919050565b61210b816120f0565b82525050565b60006020820190506121266000830184612102565b92915050565b612135816120f0565b811461214057600080fd5b50565b6000813590506121528161212c565b92915050565b6000806040838503121561216f5761216e611ef6565b5b600061217d85828601612143565b925050602061218e8582860161208e565b9150509250929050565b600080fd5b600080fd5b7f4e487b7100000000000000000000000000000000000000000000000000000000600052604160045260246000fd5b6121da82612001565b810181811067ffffffffffffffff821117156121f9576121f86121a2565b5b80604052505050565b600061220c611eec565b905061221882826121d1565b919050565b600067ffffffffffffffff821115612238576122376121a2565b5b61224182612001565b9050602081019050919050565b82818337600083830152505050565b600061227061226b8461221d565b612202565b90508281526020810184848401111561228c5761228b61219d565b5b61229784828561224e565b509392505050565b600082601f8301126122b4576122b3612198565b5b81356122c484826020860161225d565b91505092915050565b600080600080608085870312156122e7576122e6611ef6565b5b600085013567ffffffffffffffff81111561230557612304611efb565b5b6123118782880161229f565b945050602085013567ffffffffffffffff81111561233257612331611efb565b5b61233e8782880161229f565b935050604061234f8782880161208e565b925050606085013567ffffffffffffffff8111156123705761236f611efb565b5b61237c8782880161229f565b91505092959194509250565b6000806000606084860312156123a1576123a0611ef6565b5b60006123af86828701612143565b93505060206123c086828701612143565b92505060406123d18682870161208e565b9150509250925092565b6000602082840312156123f1576123f0611ef6565b5b60006123ff84828501612143565b91505092915050565b6124118161206d565b82525050565b600060208201905061242c6000830184612408565b92915050565b61243b81611f85565b811461244657600080fd5b50565b60008135905061245881612432565b92915050565b6000806040838503121561247557612474611ef6565b5b600061248385828601612143565b925050602061249485828601612449565b9150509250929050565b600060808201905081810360008301526124b88187612012565b905081810360208301526124cc8186612012565b90506124db6040830185612408565b81810360608301526124ed8184612012565b905095945050505050565b600067ffffffffffffffff821115612513576125126121a2565b5b61251c82612001565b9050602081019050919050565b600061253c612537846124f8565b612202565b9050828152602081018484840111156125585761255761219d565b5b61256384828561224e565b509392505050565b600082601f8301126125805761257f612198565b5b8135612590848260208601612529565b91505092915050565b600080600080608085870312156125b3576125b2611ef6565b5b60006125c187828801612143565b94505060206125d287828801612143565b93505060406125e38782880161208e565b925050606085013567ffffffffffffffff81111561260457612603611efb565b5b6126108782880161256b565b91505092959194509250565b6000819050919050565b600061264161263c612637846120d0565b61261c565b6120d0565b9050919050565b600061265382612626565b9050919050565b600061266582612648565b9050919050565b6126758161265a565b82525050565b6000602082019050612690600083018461266c565b92915050565b600080604083850312156126ad576126ac611ef6565b5b60006126bb85828601612143565b92505060206126cc85828601612143565b9150509250929050565b7f4e487b7100000000000000000000000000000000000000000000000000000000600052602260045260246000fd5b6000600282049050600182168061271d57607f821691505b6020821081036127305761272f6126d6565b5b50919050565b60008190508160005260206000209050919050565b60006020601f8301049050919050565b600082821b905092915050565b6000600883026127987fffffffffffffffffffffffffffffffffffffffffffffffffffffffffffffffff8261275b565b6127a2868361275b565b95508019841693508086168417925050509392505050565b60006127d56127d06127cb8461206d565b61261c565b61206d565b9050919050565b6000819050919050565b6127ef836127ba565b6128036127fb826127dc565b848454612768565b825550505050565b600090565b61281861280b565b6128238184846127e6565b505050565b5b818110156128475761283c600082612810565b600181019050612829565b5050565b601f82111561288c5761285d81612736565b6128668461274b565b81016020851015612875578190505b6128896128818561274b565b830182612828565b50505b505050565b600082821c905092915050565b60006128af60001984600802612891565b1980831691505092915050565b60006128c8838361289e565b9150826002028217905092915050565b6128e182611fbb565b67ffffffffffffffff8111156128fa576128f96121a2565b5b6129048254612705565b61290f82828561284b565b600060209050601f8311600181146129425760008415612930578287015190505b61293a85826128bc565b8655506129a2565b601f19841661295086612736565b60005b8281101561297857848901518255600182019150602085019450602081019050612953565b868310156129955784890151612991601f89168261289e565b8355505b6001600288020188555050505b505050505050565b7f4e487b7100000000000000000000000000000000000000000000000000000000600052601160045260246000fd5b60006129e48261206d565b91507fffffffffffffffffffffffffffffffffffffffffffffffffffffffffffffffff8203612a1657612a156129aa565b5b600182019050919050565b6000606082019050612a366000830186612102565b612a436020830185612408565b612a506040830184612102565b949350505050565b7f4e6f7420796f757220776561706f6e2100000000000000000000000000000000600082015250565b6000612a8e601083611fc6565b9150612a9982612a58565b602082019050919050565b60006020820190508181036000830152612abd81612a81565b9050919050565b6000606082019050612ad96000830186612102565b612ae66020830185612102565b612af36040830184612408565b949350505050565b600081519050612b0a81612432565b92915050565b600060208284031215612b2657612b25611ef6565b5b6000612b3484828501612afb565b91505092915050565b7f5061796d656e74206661696c65642120417070726f766520746f6b656e73206660008201527f697273742e000000000000000000000000000000000000000000000000000000602082015250565b6000612b99602583611fc6565b9150612ba482612b3d565b604082019050919050565b60006020820190508181036000830152612bc881612b8c565b9050919050565b600081905092915050565b7f646174613a696d6167652f7376672b786d6c3b6261736536342c000000000000600082015250565b6000612c10601a83612bcf565b9150612c1b82612bda565b601a82019050919050565b6000612c3182611fbb565b612c3b8185612bcf565b9350612c4b818560208601611fd7565b80840191505092915050565b6000612c6282612c03565b9150612c6e8284612c26565b915081905092915050565b7f7b226e616d65223a202200000000000000000000000000000000000000000000600082015250565b6000612caf600a83612bcf565b9150612cba82612c79565b600a82019050919050565b7f222c000000000000000000000000000000000000000000000000000000000000600082015250565b6000612cfb600283612bcf565b9150612d0682612cc5565b600282019050919050565b7f226465736372697074696f6e223a202200000000000000000000000000000000600082015250565b6000612d47601083612bcf565b9150612d5282612d11565b601082019050919050565b7f2261747472696275746573223a205b7b2274726169745f74797065223a20224c60008201527f6576656c222c202276616c7565223a2000000000000000000000000000000000602082015250565b6000612db9603083612bcf565b9150612dc482612d5d565b603082019050919050565b7f7d5d2c0000000000000000000000000000000000000000000000000000000000600082015250565b6000612e05600383612bcf565b9150612e1082612dcf565b600382019050919050565b7f22696d616765223a202200000000000000000000000000000000000000000000600082015250565b6000612e51600a83612bcf565b9150612e5c82612e1b565b600a82019050919050565b7f227d000000000000000000000000000000000000000000000000000000000000600082015250565b6000612e9d600283612bcf565b9150612ea882612e67565b600282019050919050565b6000612ebe82612ca2565b9150612eca8287612c26565b9150612ed582612cee565b9150612ee082612d3a565b9150612eec8286612c26565b9150612ef782612cee565b9150612f0282612dac565b9150612f0e8285612c26565b9150612f1982612df8565b9150612f2482612e44565b9150612f308284612c26565b9150612f3b82612e90565b915081905095945050505050565b7f646174613a6170706c69636174696f6e2f6a736f6e3b6261736536342c000000600082015250565b6000612f7f601d83612bcf565b9150612f8a82612f49565b601d82019050919050565b6000612fa082612f72565b9150612fac8284612c26565b915081905092915050565b600081519050919050565b600082825260208201905092915050565b6000612fde82612fb7565b612fe88185612fc2565b9350612ff8818560208601611fd7565b61300181612001565b840191505092915050565b60006080820190506130216000830187612102565b61302e6020830186612102565b61303b6040830185612408565b818103606083015261304d8184612fd3565b905095945050505050565b60008151905061306781611f2c565b92915050565b60006020828403121561308357613082611ef6565b5b600061309184828501613058565b91505092915050565b7f4e487b7100000000000000000000000000000000000000000000000000000000600052601260045260246000fd5b60006040820190506130de6000830185612102565b6130eb6020830184612408565b9392505050565b60006130fd8261206d565b91506131088361206d565b92508282026131168161206d565b9150828204841483151761312d5761312c6129aa565b5b5092915050565b600061313f8261206d565b915061314a8361206d565b9250828201905080821115613162576131616129aa565b5b92915050565b60006131738261206d565b915061317e8361206d565b92508261318e5761318d61309a565b5b82820490509291505056fe4142434445464748494a4b4c4d4e4f505152535455565758595a6162636465666768696a6b6c6d6e6f707172737475767778797a303132333435363738392b2fa2646970667358221220196ddd1957160e2d082482d06f4ddedb67b8a06ec8fa0e6224cc0df0a7cc4dbe64736f6c634300081c0033",
  "linkReferences": {},
  "deployedLinkReferences": {}
}