{
  "_format": "hh-sol-artifact-1",
  "contractName": "GasBattle",
  "sourceName": "contracts/GasBattle.sol",
  "abi": [
    {
      "inputs": [],
      "name": "createNoob",
      "outputs": [],
      "stateMutability": "nonpayable",
      "type": "function"
    },
    {
      "inputs": [],
      "name": "createPro",
      "outputs": [],
      "stateMutability": "nonpayable",
      "type": "function"
    },
    {
      "inputs": [],
      "name": "noob",
      "outputs": [
        {
          "internalType": "uint128",
          "name": "hp",
          "type": "uint128"
        },
        {
          "internalType": "uint256",
          "name": "id",
          "type": "uint256"
        },
        {
          "internalType": "uint128",
          "name": "mana",
          "type": "uint128"
        }
      ],
      "stateMutability": "view",
      "type": "function"
    },
    {
      "inputs": [],
      "name": "pro",
      "outputs": [
        {
          "internalType": "uint128",
          "name": "hp",
          "type": "uint128"
        },
        {
          "internalType": "uint128",
          "name": "mana",
          "type": "uint128"
        },
        {
          "internalType": "uint256",
          "name": "id",
          "type": "uint256"
        }
      ],
      "stateMutability": "view",
      "type": "function"
    }
  ],
  "bytecode": "0x6080604052348015600f57600080fd5b506103d08061001f6000396000f3fe608060405234801561001057600080fd5b506004361061004c5760003560e01c80634f434a381461005157806369a0a9cd1461005b5780639fed293b14610065578063d7c31a6914610085575b600080fd5b6100596100a5565b005b610063610177565b005b61006d610248565b60405161007c9392919061032c565b60405180910390f35b61008d610298565b60405161009c93929190610363565b60405180910390f35b604051806060016040528060646fffffffffffffffffffffffffffffffff16815260200160326fffffffffffffffffffffffffffffffff168152602001613039815250600360008201518160000160006101000a8154816fffffffffffffffffffffffffffffffff02191690836fffffffffffffffffffffffffffffffff16021790555060208201518160000160106101000a8154816fffffffffffffffffffffffffffffffff02191690836fffffffffffffffffffffffffffffffff16021790555060408201518160010155905050565b604051806060016040528060646fffffffffffffffffffffffffffffffff168152602001613039815260200160326fffffffffffffffffffffffffffffffff168152506000808201518160000160006101000a8154816fffffffffffffffffffffffffffffffff02191690836fffffffffffffffffffffffffffffffff1602179055506020820151816001015560408201518160020160006101000a8154816fffffffffffffffffffffffffffffffff02191690836fffffffffffffffffffffffffffffffff160217905550905050565b60008060000160009054906101000a90046fffffffffffffffffffffffffffffffff16908060010154908060020160009054906101000a90046fffffffffffffffffffffffffffffffff16905083565b60038060000160009054906101000a90046fffffffffffffffffffffffffffffffff16908060000160109054906101000a90046fffffffffffffffffffffffffffffffff16908060010154905083565b60006fffffffffffffffffffffffffffffffff82169050919050565b61030d816102e8565b82525050565b6000819050919050565b61032681610313565b82525050565b60006060820190506103416000830186610304565b61034e602083018561031d565b61035b6040830184610304565b949350505050565b60006060820190506103786000830186610304565b6103856020830185610304565b610392604083018461031d565b94935050505056fea2646970667358221220400f8085926c6ad0ebde4deabe4e4736b0cfcd1554cacc945ee7449e9835226564736f6c634300081c0033",
  "linkReferences": {},
  "deployedLinkReferences": {}
}