{
  "_format": "hh-sol-artifact-1",
  "contractName": "OnChainWeapon",
  "sourceName": "contracts/OnChainWeapon.sol",
  "abi": [
    {
      "inputs": [],
      "stateMutability": "nonpayable",
      "type": "constructor"
    },
    {
      "inputs": [
        {
          "internalType": "address",
          "name": "sender",
          "type": "address"
        },
        {
          "internalType": "uint256",
          "name": "tokenId",
          "type": "uint256"
        },
        {
          "internalType": "address",
          "name": "owner",
          "type": "address"
        }
      ],
      "name": "ERC721IncorrectOwner",
      "type": "error"
    },
    {
      "inputs": [
        {
          "internalType": "address",
          "name": "operator",
          "type": "address"
        },
        {
          "internalType": "uint256",
          "name": "tokenId",
          "type": "uint256"
        }
      ],
      "name": "ERC721InsufficientApproval",
      "type": "error"
    },
    {
      "inputs": [
        {
          "internalType": "address",
          "name": "approver",
          "type": "address"
        }
      ],
      "name": "ERC721InvalidApprover",
      "type": "error"
    },
    {
      "inputs": [
        {
          "internalType": "address",
          "name": "operator",
          "type": "address"
        }
      ],
      "name": "ERC721InvalidOperator",
      "type": "error"
    },
    {
      "inputs": [
        {
          "internalType": "address",
          "name": "owner",
          "type": "address"
        }
      ],
      "name": "ERC721InvalidOwner",
      "type": "error"
    },
    {
      "inputs": [
        {
          "internalType": "address",
          "name": "receiver",
          "type": "address"
        }
      ],
      "name": "ERC721InvalidReceiver",
      "type": "error"
    },
    {
      "inputs": [
        {
          "internalType": "address",
          "name": "sender",
          "type": "address"
        }
      ],
      "name": "ERC721InvalidSender",
      "type": "error"
    },
    {
      "inputs": [
        {
          "internalType": "uint256",
          "name": "tokenId",
          "type": "uint256"
        }
      ],
      "name": "ERC721NonexistentToken",
      "type": "error"
    },
    {
      "anonymous": false,
      "inputs": [
        {
          "indexed": true,
          "internalType": "address",
          "name": "owner",
          "type": "address"
        },
        {
          "indexed": true,
          "internalType": "address",
          "name": "approved",
          "type": "address"
        },
        {
          "indexed": true,
          "internalType": "uint256",
          "name": "tokenId",
          "type": "uint256"
        }
      ],
      "name": "Approval",
      "type": "event"
    },
    {
      "anonymous": false,
      "inputs": [
        {
          "indexed": true,
          "internalType": "address",
          "name": "owner",
          "type": "address"
        },
        {
          "indexed": true,
          "internalType": "address",
          "name": "operator",
          "type": "address"
        },
        {
          "indexed": false,
          "internalType": "bool",
          "name": "approved",
          "type": "bool"
        }
      ],
      "name": "ApprovalForAll",
      "type": "event"
    },
    {
      "anonymous": false,
      "inputs": [
        {
          "indexed": false,
          "internalType": "uint256",
          "name": "_fromTokenId",
          "type": "uint256"
        },
        {
          "indexed": false,
          "internalType": "uint256",
          "name": "_toTokenId",
          "type": "uint256"
        }
      ],
      "name": "BatchMetadataUpdate",
      "type": "event"
    },
    {
      "anonymous": false,
      "inputs": [
        {
          "indexed": false,
          "internalType": "uint256",
          "name": "_tokenId",
          "type": "uint256"
        }
      ],
      "name": "MetadataUpdate",
      "type": "event"
    },
    {
      "anonymous": false,
      "inputs": [
        {
          "indexed": true,
          "internalType": "address",
          "name": "from",
          "type": "address"
        },
        {
          "indexed": true,
          "internalType": "address",
          "name": "to",
          "type": "address"
        },
        {
          "indexed": true,
          "internalType": "uint256",
          "name": "tokenId",
          "type": "uint256"
        }
      ],
      "name": "Transfer",
      "type": "event"
    },
    {
      "inputs": [
        {
          "internalType": "address",
          "name": "to",
          "type": "address"
        },
        {
          "internalType": "uint256",
          "name": "tokenId",
          "type": "uint256"
        }
      ],
      "name": "approve",
      "outputs": [],
      "stateMutability": "nonpayable",
      "type": "function"
    },
    {
      "inputs": [
        {
          "internalType": "address",
          "name": "owner",
          "type": "address"
        }
      ],
      "name": "balanceOf",
      "outputs": [
        {
          "internalType": "uint256",
          "name": "",
          "type": "uint256"
        }
      ],
      "stateMutability": "view",
      "type": "function"
    },
    {
      "inputs": [
        {
          "internalType": "uint256",
          "name": "tokenId",
          "type": "uint256"
        }
      ],
      "name": "getApproved",
      "outputs": [
        {
          "internalType": "address",
          "name": "",
          "type": "address"
        }
      ],
      "stateMutability": "view",
      "type": "function"
    },
    {
      "inputs": [
        {
          "internalType": "address",
          "name": "owner",
          "type": "address"
        },
        {
          "internalType": "address",
          "name": "operator",
          "type": "address"
        }
      ],
      "name": "isApprovedForAll",
      "outputs": [
        {
          "internalType": "bool",
          "name": "",
          "type": "bool"
        }
      ],
      "stateMutability": "view",
      "type": "function"
    },
    {
      "inputs": [
        {
          "internalType": "uint256",
          "name": "tokenId",
          "type": "uint256"
        }
      ],
      "name": "levelUp",
      "outputs": [],
      "stateMutability": "nonpayable",
      "type": "function"
    },
    {
      "inputs": [],
      "name": "mint",
      "outputs": [],
      "stateMutability": "nonpayable",
      "type": "function"
    },
    {
      "inputs": [],
      "name": "name",
      "outputs": [
        {
          "internalType": "string",
          "name": "",
          "type": "string"
        }
      ],
      "stateMutability": "view",
      "type": "function"
    },
    {
      "inputs": [
        {
          "internalType": "uint256",
          "name": "tokenId",
          "type": "uint256"
        }
      ],
      "name": "ownerOf",
      "outputs": [
        {
          "internalType": "address",
          "name": "",
          "type": "address"
        }
      ],
      "stateMutability": "view",
      "type": "function"
    },
    {
      "inputs": [
        {
          "internalType": "address",
          "name": "from",
          "type": "address"
        },
        {
          "internalType": "address",
          "name": "to",
          "type": "address"
        },
        {
          "internalType": "uint256",
          "name": "tokenId",
          "type": "uint256"
        }
      ],
      "name": "safeTransferFrom",
      "outputs": [],
      "stateMutability": "nonpayable",
      "type": "function"
    },
    {
      "inputs": [
        {
          "internalType": "address",
          "name": "from",
          "type": "address"
        },
        {
          "internalType": "address",
          "name": "to",
          "type": "address"
        },
        {
          "internalType": "uint256",
          "name": "tokenId",
          "type": "uint256"
        },
        {
          "internalType": "bytes",
          "name": "data",
          "type": "bytes"
        }
      ],
      "name": "safeTransferFrom",
      "outputs": [],
      "stateMutability": "nonpayable",
      "type": "function"
    },
    {
      "inputs": [
        {
          "internalType": "address",
          "name": "operator",
          "type": "address"
        },
        {
          "internalType": "bool",
          "name": "approved",
          "type": "bool"
        }
      ],
      "name": "setApprovalForAll",
      "outputs": [],
      "stateMutability": "nonpayable",
      "type": "function"
    },
    {
      "inputs": [
        {
          "internalType": "bytes4",
          "name": "interfaceId",
          "type": "bytes4"
        }
      ],
      "name": "supportsInterface",
      "outputs": [
        {
          "internalType": "bool",
          "name": "",
          "type": "bool"
        }
      ],
      "stateMutability": "view",
      "type": "function"
    },
    {
      "inputs": [],
      "name": "symbol",
      "outputs": [
        {
          "internalType": "string",
          "name": "",
          "type": "string"
        }
      ],
      "stateMutability": "view",
      "type": "function"
    },
    {
      "inputs": [],
      "name": "tokenCounter",
      "outputs": [
        {
          "internalType": "uint256",
          "name": "",
          "type": "uint256"
        }
      ],
      "stateMutability": "view",
      "type": "function"
    },
    {
      "inputs": [
        {
          "internalType": "uint256",
          "name": "tokenId",
          "type": "uint256"
        }
      ],
      "name": "tokenURI",
      "outputs": [
        {
          "internalType": "string",
          "name": "",
          "type": "string"
        }
      ],
      "stateMutability": "view",
      "type": "function"
    },
    {
      "inputs": [
        {
          "internalType": "address",
          "name": "from",
          "type": "address"
        },
        {
          "internalType": "address",
          "name": "to",
          "type": "address"
        },
        {
          "internalType": "uint256",
          "name": "tokenId",
          "type": "uint256"
        }
      ],
      "name": "transferFrom",
      "outputs": [],
      "stateMutability": "nonpayable",
      "type": "function"
    },
    {
      "inputs": [
        {
          "internalType": "uint256",
          "name": "",
          "type": "uint256"
        }
      ],
      "name": "weaponLevels",
      "outputs": [
        {
          "internalType": "uint256",
          "name": "",
          "type": "uint256"
        }
      ],
      "stateMutability": "view",
      "type": "function"
    }
  ],
  "bytecode": "0x608060405234801561001057600080fd5b506040518060400160405280600a81526020017f4f6e436861696e47756e000000000000000000000000000000000000000000008152506040518060400160405280600381526020017f4f43470000000000000000000000000000000000000000000000000000000000815250816000908161008c91906102fc565b50806001908161009c91906102fc565b50505060006007819055506103ce565b600081519050919050565b7f4e487b7100000000000000000000000000000000000000000000000000000000600052604160045260246000fd5b7f4e487b7100000000000000000000000000000000000000000000000000000000600052602260045260246000fd5b6000600282049050600182168061012d57607f821691505b6020821081036101405761013f6100e6565b5b50919050565b60008190508160005260206000209050919050565b60006020601f8301049050919050565b600082821b905092915050565b6000600883026101a87fffffffffffffffffffffffffffffffffffffffffffffffffffffffffffffffff8261016b565b6101b2868361016b565b95508019841693508086168417925050509392505050565b6000819050919050565b6000819050919050565b60006101f96101f46101ef846101ca565b6101d4565b6101ca565b9050919050565b6000819050919050565b610213836101de565b61022761021f82610200565b848454610178565b825550505050565b600090565b61023c61022f565b61024781848461020a565b505050565b5b8181101561026b57610260600082610234565b60018101905061024d565b5050565b601f8211156102b05761028181610146565b61028a8461015b565b81016020851015610299578190505b6102ad6102a58561015b565b83018261024c565b50505b505050565b600082821c905092915050565b60006102d3600019846008026102b5565b1980831691505092915050565b60006102ec83836102c2565b9150826002028217905092915050565b610305826100ac565b67ffffffffffffffff81111561031e5761031d6100b7565b5b6103288254610115565b61033382828561026f565b600060209050601f8311600181146103665760008415610354578287015190505b61035e85826102e0565b8655506103c6565b601f19841661037486610146565b60005b8281101561039c57848901518255600182019150602085019450602081019050610377565b868310156103b957848901516103b5601f8916826102c2565b8355505b6001600288020188555050505b505050505050565b612a38806103dd6000396000f3fe608060405234801561001057600080fd5b506004361061010b5760003560e01c8063522dbf82116100a2578063a22cb46511610071578063a22cb465146102b6578063b88d4fde146102d2578063c87b56dd146102ee578063d082e3811461031e578063e985e9c51461033c5761010b565b8063522dbf82146102085780636352211e1461023857806370a082311461026857806395d89b41146102985761010b565b80630ce90ec2116100de5780630ce90ec2146101aa5780631249c58b146101c657806323b872dd146101d057806342842e0e146101ec5761010b565b806301ffc9a71461011057806306fdde0314610140578063081812fc1461015e578063095ea7b31461018e575b600080fd5b61012a600480360381019061012591906119e6565b61036c565b6040516101379190611a2e565b60405180910390f35b6101486103cd565b6040516101559190611ad9565b60405180910390f35b61017860048036038101906101739190611b31565b61045f565b6040516101859190611b9f565b60405180910390f35b6101a860048036038101906101a39190611be6565b61047b565b005b6101c460048036038101906101bf9190611b31565b610491565b005b6101ce6104bd565b005b6101ea60048036038101906101e59190611c26565b610502565b005b61020660048036038101906102019190611c26565b610604565b005b610222600480360381019061021d9190611b31565b610624565b60405161022f9190611c88565b60405180910390f35b610252600480360381019061024d9190611b31565b61063c565b60405161025f9190611b9f565b60405180910390f35b610282600480360381019061027d9190611ca3565b61064e565b60405161028f9190611c88565b60405180910390f35b6102a0610708565b6040516102ad9190611ad9565b60405180910390f35b6102d060048036038101906102cb9190611cfc565b61079a565b005b6102ec60048036038101906102e79190611e71565b6107b0565b005b61030860048036038101906103039190611b31565b6107d5565b6040516103159190611ad9565b60405180910390f35b610326610860565b6040516103339190611c88565b60405180910390f35b61035660048036038101906103519190611ef4565b610866565b6040516103639190611a2e565b60405180910390f35b6000634906490660e01b7bffffffffffffffffffffffffffffffffffffffffffffffffffffffff1916827bffffffffffffffffffffffffffffffffffffffffffffffffffffffff191614806103c657506103c5826108fa565b5b9050919050565b6060600080546103dc90611f63565b80601f016020809104026020016040519081016040528092919081815260200182805461040890611f63565b80156104555780601f1061042a57610100808354040283529160200191610455565b820191906000526020600020905b81548152906001019060200180831161043857829003601f168201915b5050505050905090565b600061046a826109dc565b5061047482610a64565b9050919050565b61048d8282610488610aa1565b610aa9565b5050565b6008600082815260200190815260200160002060008154809291906104b590611fc3565b919050555050565b600060075490506104ce3382610abb565b60016008600083815260200190815260200160002081905550600760008154809291906104fa90611fc3565b919050555050565b600073ffffffffffffffffffffffffffffffffffffffff168273ffffffffffffffffffffffffffffffffffffffff16036105745760006040517f64a0ae9200000000000000000000000000000000000000000000000000000000815260040161056b9190611b9f565b60405180910390fd5b60006105888383610583610aa1565b610ad9565b90508373ffffffffffffffffffffffffffffffffffffffff168173ffffffffffffffffffffffffffffffffffffffff16146105fe578382826040517f64283d7b0000000000000000000000000000000000000000000000000000000081526004016105f59392919061200b565b60405180910390fd5b50505050565b61061f838383604051806020016040528060008152506107b0565b505050565b60086020528060005260406000206000915090505481565b6000610647826109dc565b9050919050565b60008073ffffffffffffffffffffffffffffffffffffffff168273ffffffffffffffffffffffffffffffffffffffff16036106c15760006040517f89c62b640000000000000000000000000000000000000000000000000000000081526004016106b89190611b9f565b60405180910390fd5b600360008373ffffffffffffffffffffffffffffffffffffffff1673ffffffffffffffffffffffffffffffffffffffff168152602001908152602001600020549050919050565b60606001805461071790611f63565b80601f016020809104026020016040519081016040528092919081815260200182805461074390611f63565b80156107905780601f1061076557610100808354040283529160200191610790565b820191906000526020600020905b81548152906001019060200180831161077357829003601f168201915b5050505050905090565b6107ac6107a5610aa1565b8383610cf3565b5050565b6107bb848484610502565b6107cf6107c6610aa1565b85858585610e62565b50505050565b606060006107e283611013565b905060006107ef8461108a565b61080b600860008781526020019081526020016000205461108a565b8360405160200161081e939291906122de565b604051602081830303815290604052905061083881611158565b60405160200161084891906123a8565b60405160208183030381529060405292505050919050565b60075481565b6000600560008473ffffffffffffffffffffffffffffffffffffffff1673ffffffffffffffffffffffffffffffffffffffff16815260200190815260200160002060008373ffffffffffffffffffffffffffffffffffffffff1673ffffffffffffffffffffffffffffffffffffffff16815260200190815260200160002060009054906101000a900460ff16905092915050565b60007f80ac58cd000000000000000000000000000000000000000000000000000000007bffffffffffffffffffffffffffffffffffffffffffffffffffffffff1916827bffffffffffffffffffffffffffffffffffffffffffffffffffffffff191614806109c557507f5b5e139f000000000000000000000000000000000000000000000000000000007bffffffffffffffffffffffffffffffffffffffffffffffffffffffff1916827bffffffffffffffffffffffffffffffffffffffffffffffffffffffff1916145b806109d557506109d482611185565b5b9050919050565b6000806109e8836111ef565b9050600073ffffffffffffffffffffffffffffffffffffffff168173ffffffffffffffffffffffffffffffffffffffff1603610a5b57826040517f7e273289000000000000000000000000000000000000000000000000000000008152600401610a529190611c88565b60405180910390fd5b80915050919050565b60006004600083815260200190815260200160002060009054906101000a900473ffffffffffffffffffffffffffffffffffffffff169050919050565b600033905090565b610ab6838383600161122c565b505050565b610ad58282604051806020016040528060008152506113f1565b5050565b600080610ae5846111ef565b9050600073ffffffffffffffffffffffffffffffffffffffff168373ffffffffffffffffffffffffffffffffffffffff1614610b2757610b26818486611415565b5b600073ffffffffffffffffffffffffffffffffffffffff168173ffffffffffffffffffffffffffffffffffffffff1614610bb857610b6960008560008061122c565b6001600360008373ffffffffffffffffffffffffffffffffffffffff1673ffffffffffffffffffffffffffffffffffffffff168152602001908152602001600020600082825403925050819055505b600073ffffffffffffffffffffffffffffffffffffffff168573ffffffffffffffffffffffffffffffffffffffff1614610c3b576001600360008773ffffffffffffffffffffffffffffffffffffffff1673ffffffffffffffffffffffffffffffffffffffff168152602001908152602001600020600082825401925050819055505b846002600086815260200190815260200160002060006101000a81548173ffffffffffffffffffffffffffffffffffffffff021916908373ffffffffffffffffffffffffffffffffffffffff160217905550838573ffffffffffffffffffffffffffffffffffffffff168273ffffffffffffffffffffffffffffffffffffffff167fddf252ad1be2c89b69c2b068fc378daa952ba7f163c4a11628f55a4df523b3ef60405160405180910390a4809150509392505050565b600073ffffffffffffffffffffffffffffffffffffffff168273ffffffffffffffffffffffffffffffffffffffff1603610d6457816040517f5b08ba18000000000000000000000000000000000000000000000000000000008152600401610d5b9190611b9f565b60405180910390fd5b80600560008573ffffffffffffffffffffffffffffffffffffffff1673ffffffffffffffffffffffffffffffffffffffff16815260200190815260200160002060008473ffffffffffffffffffffffffffffffffffffffff1673ffffffffffffffffffffffffffffffffffffffff16815260200190815260200160002060006101000a81548160ff0219169083151502179055508173ffffffffffffffffffffffffffffffffffffffff168373ffffffffffffffffffffffffffffffffffffffff167f17307eab39ab6107e8899845ad3d59bd9653f200f220920489ca2b5937696c3183604051610e559190611a2e565b60405180910390a3505050565b60008373ffffffffffffffffffffffffffffffffffffffff163b111561100c578273ffffffffffffffffffffffffffffffffffffffff1663150b7a02868685856040518563ffffffff1660e01b8152600401610ec1949392919061241f565b6020604051808303816000875af1925050508015610efd57506040513d601f19601f82011682018060405250810190610efa9190612480565b60015b610f81573d8060008114610f2d576040519150601f19603f3d011682016040523d82523d6000602084013e610f32565b606091505b506000815103610f7957836040517f64a0ae92000000000000000000000000000000000000000000000000000000008152600401610f709190611b9f565b60405180910390fd5b805160208201fd5b63150b7a0260e01b7bffffffffffffffffffffffffffffffffffffffffffffffffffffffff1916817bffffffffffffffffffffffffffffffffffffffffffffffffffffffff19161461100a57836040517f64a0ae920000000000000000000000000000000000000000000000000000000081526004016110019190611b9f565b60405180910390fd5b505b5050505050565b606060006008600084815260200190815260200160002054905060006110388261108a565b60405160200161104891906127f1565b604051602081830303815290604052905061106281611158565b60405160200161107291906128a1565b60405160208183030381529060405292505050919050565b606060006001611099846114d9565b01905060008167ffffffffffffffff8111156110b8576110b7611d46565b5b6040519080825280601f01601f1916602001820160405280156110ea5781602001600182028036833780820191505090505b509050600082602083010190505b60011561114d578080600190039150507f3031323334353637383961626364656600000000000000000000000000000000600a86061a8153600a8581611141576111406128c3565b5b049450600085036110f8575b819350505050919050565b606061117e826040518060600160405280604081526020016129c360409139600161162c565b9050919050565b60007f01ffc9a7000000000000000000000000000000000000000000000000000000007bffffffffffffffffffffffffffffffffffffffffffffffffffffffff1916827bffffffffffffffffffffffffffffffffffffffffffffffffffffffff1916149050919050565b60006002600083815260200190815260200160002060009054906101000a900473ffffffffffffffffffffffffffffffffffffffff169050919050565b80806112655750600073ffffffffffffffffffffffffffffffffffffffff168273ffffffffffffffffffffffffffffffffffffffff1614155b15611399576000611275846109dc565b9050600073ffffffffffffffffffffffffffffffffffffffff168373ffffffffffffffffffffffffffffffffffffffff16141580156112e057508273ffffffffffffffffffffffffffffffffffffffff168173ffffffffffffffffffffffffffffffffffffffff1614155b80156112f357506112f18184610866565b155b1561133557826040517fa9fbf51f00000000000000000000000000000000000000000000000000000000815260040161132c9190611b9f565b60405180910390fd5b811561139757838573ffffffffffffffffffffffffffffffffffffffff168273ffffffffffffffffffffffffffffffffffffffff167f8c5be1e5ebec7d5bd14f71427d1e84f3dd0314c0f7b2291e5b200ac8c7c3b92560405160405180910390a45b505b836004600085815260200190815260200160002060006101000a81548173ffffffffffffffffffffffffffffffffffffffff021916908373ffffffffffffffffffffffffffffffffffffffff16021790555050505050565b6113fb83836117c0565b611410611406610aa1565b6000858585610e62565b505050565b6114208383836118b9565b6114d457600073ffffffffffffffffffffffffffffffffffffffff168373ffffffffffffffffffffffffffffffffffffffff160361149557806040517f7e27328900000000000000000000000000000000000000000000000000000000815260040161148c9190611c88565b60405180910390fd5b81816040517f177e802f0000000000000000000000000000000000000000000000000000000081526004016114cb9291906128f2565b60405180910390fd5b505050565b600080600090507a184f03e93ff9f4daa797ed6e38ed64bf6a1f0100000000000000008310611537577a184f03e93ff9f4daa797ed6e38ed64bf6a1f010000000000000000838161152d5761152c6128c3565b5b0492506040810190505b6d04ee2d6d415b85acef81000000008310611574576d04ee2d6d415b85acef8100000000838161156a576115696128c3565b5b0492506020810190505b662386f26fc1000083106115a357662386f26fc100008381611599576115986128c3565b5b0492506010810190505b6305f5e10083106115cc576305f5e10083816115c2576115c16128c3565b5b0492506008810190505b61271083106115f15761271083816115e7576115e66128c3565b5b0492506004810190505b60648310611614576064838161160a576116096128c3565b5b0492506002810190505b600a8310611623576001810190505b80915050919050565b6060600084510361164e576040518060200160405280600081525090506117b9565b600082611680576003600286516004611667919061291b565b611671919061295d565b61167b9190612991565b6116a7565b600360028651611690919061295d565b61169a9190612991565b60046116a6919061291b565b5b905060008167ffffffffffffffff8111156116c5576116c4611d46565b5b6040519080825280601f01601f1916602001820160405280156116f75781602001600182028036833780820191505090505b50905060018501602082018788518901602081018051600082525b8284101561176d576003840193508351603f8160121c168701518653600186019550603f81600c1c168701518653600186019550603f8160061c168701518653600186019550603f8116870151865360018601955050611712565b80825289156117ad5760038c51066001811461179057600281146117a3576117ab565b603d6001870353603d60028703536117ab565b603d60018703535b505b50505050505080925050505b9392505050565b600073ffffffffffffffffffffffffffffffffffffffff168273ffffffffffffffffffffffffffffffffffffffff16036118325760006040517f64a0ae920000000000000000000000000000000000000000000000000000000081526004016118299190611b9f565b60405180910390fd5b600061184083836000610ad9565b9050600073ffffffffffffffffffffffffffffffffffffffff168173ffffffffffffffffffffffffffffffffffffffff16146118b45760006040517f73c6ac6e0000000000000000000000000000000000000000000000000000000081526004016118ab9190611b9f565b60405180910390fd5b505050565b60008073ffffffffffffffffffffffffffffffffffffffff168373ffffffffffffffffffffffffffffffffffffffff161415801561197157508273ffffffffffffffffffffffffffffffffffffffff168473ffffffffffffffffffffffffffffffffffffffff16148061193257506119318484610866565b5b8061197057508273ffffffffffffffffffffffffffffffffffffffff1661195883610a64565b73ffffffffffffffffffffffffffffffffffffffff16145b5b90509392505050565b6000604051905090565b600080fd5b600080fd5b60007fffffffff0000000000000000000000000000000000000000000000000000000082169050919050565b6119c38161198e565b81146119ce57600080fd5b50565b6000813590506119e0816119ba565b92915050565b6000602082840312156119fc576119fb611984565b5b6000611a0a848285016119d1565b91505092915050565b60008115159050919050565b611a2881611a13565b82525050565b6000602082019050611a436000830184611a1f565b92915050565b600081519050919050565b600082825260208201905092915050565b60005b83811015611a83578082015181840152602081019050611a68565b60008484015250505050565b6000601f19601f8301169050919050565b6000611aab82611a49565b611ab58185611a54565b9350611ac5818560208601611a65565b611ace81611a8f565b840191505092915050565b60006020820190508181036000830152611af38184611aa0565b905092915050565b6000819050919050565b611b0e81611afb565b8114611b1957600080fd5b50565b600081359050611b2b81611b05565b92915050565b600060208284031215611b4757611b46611984565b5b6000611b5584828501611b1c565b91505092915050565b600073ffffffffffffffffffffffffffffffffffffffff82169050919050565b6000611b8982611b5e565b9050919050565b611b9981611b7e565b82525050565b6000602082019050611bb46000830184611b90565b92915050565b611bc381611b7e565b8114611bce57600080fd5b50565b600081359050611be081611bba565b92915050565b60008060408385031215611bfd57611bfc611984565b5b6000611c0b85828601611bd1565b9250506020611c1c85828601611b1c565b9150509250929050565b600080600060608486031215611c3f57611c3e611984565b5b6000611c4d86828701611bd1565b9350506020611c5e86828701611bd1565b9250506040611c6f86828701611b1c565b9150509250925092565b611c8281611afb565b82525050565b6000602082019050611c9d6000830184611c79565b92915050565b600060208284031215611cb957611cb8611984565b5b6000611cc784828501611bd1565b91505092915050565b611cd981611a13565b8114611ce457600080fd5b50565b600081359050611cf681611cd0565b92915050565b60008060408385031215611d1357611d12611984565b5b6000611d2185828601611bd1565b9250506020611d3285828601611ce7565b9150509250929050565b600080fd5b600080fd5b7f4e487b7100000000000000000000000000000000000000000000000000000000600052604160045260246000fd5b611d7e82611a8f565b810181811067ffffffffffffffff82111715611d9d57611d9c611d46565b5b80604052505050565b6000611db061197a565b9050611dbc8282611d75565b919050565b600067ffffffffffffffff821115611ddc57611ddb611d46565b5b611de582611a8f565b9050602081019050919050565b82818337600083830152505050565b6000611e14611e0f84611dc1565b611da6565b905082815260208101848484011115611e3057611e2f611d41565b5b611e3b848285611df2565b509392505050565b600082601f830112611e5857611e57611d3c565b5b8135611e68848260208601611e01565b91505092915050565b60008060008060808587031215611e8b57611e8a611984565b5b6000611e9987828801611bd1565b9450506020611eaa87828801611bd1565b9350506040611ebb87828801611b1c565b925050606085013567ffffffffffffffff811115611edc57611edb611989565b5b611ee887828801611e43565b91505092959194509250565b60008060408385031215611f0b57611f0a611984565b5b6000611f1985828601611bd1565b9250506020611f2a85828601611bd1565b9150509250929050565b7f4e487b7100000000000000000000000000000000000000000000000000000000600052602260045260246000fd5b60006002820490506001821680611f7b57607f821691505b602082108103611f8e57611f8d611f34565b5b50919050565b7f4e487b7100000000000000000000000000000000000000000000000000000000600052601160045260246000fd5b6000611fce82611afb565b91507fffffffffffffffffffffffffffffffffffffffffffffffffffffffffffffffff820361200057611fff611f94565b5b600182019050919050565b60006060820190506120206000830186611b90565b61202d6020830185611c79565b61203a6040830184611b90565b949350505050565b600081905092915050565b7f7b226e616d65223a2022576561706f6e20230000000000000000000000000000600082015250565b6000612083601283612042565b915061208e8261204d565b601282019050919050565b60006120a482611a49565b6120ae8185612042565b93506120be818560208601611a65565b80840191505092915050565b7f222c000000000000000000000000000000000000000000000000000000000000600082015250565b6000612100600283612042565b915061210b826120ca565b600282019050919050565b7f226465736372697074696f6e223a2022416e206f6e2d636861696e205356472060008201527f776561706f6e2e222c0000000000000000000000000000000000000000000000602082015250565b6000612172602983612042565b915061217d82612116565b602982019050919050565b7f2261747472696275746573223a205b7b2274726169745f74797065223a20224c60008201527f6576656c222c202276616c7565223a2000000000000000000000000000000000602082015250565b60006121e4603083612042565b91506121ef82612188565b603082019050919050565b7f7d5d2c0000000000000000000000000000000000000000000000000000000000600082015250565b6000612230600383612042565b915061223b826121fa565b600382019050919050565b7f22696d616765223a202200000000000000000000000000000000000000000000600082015250565b600061227c600a83612042565b915061228782612246565b600a82019050919050565b7f227d000000000000000000000000000000000000000000000000000000000000600082015250565b60006122c8600283612042565b91506122d382612292565b600282019050919050565b60006122e982612076565b91506122f58286612099565b9150612300826120f3565b915061230b82612165565b9150612316826121d7565b91506123228285612099565b915061232d82612223565b91506123388261226f565b91506123448284612099565b915061234f826122bb565b9150819050949350505050565b7f646174613a6170706c69636174696f6e2f6a736f6e3b6261736536342c000000600082015250565b6000612392601d83612042565b915061239d8261235c565b601d82019050919050565b60006123b382612385565b91506123bf8284612099565b915081905092915050565b600081519050919050565b600082825260208201905092915050565b60006123f1826123ca565b6123fb81856123d5565b935061240b818560208601611a65565b61241481611a8f565b840191505092915050565b60006080820190506124346000830187611b90565b6124416020830186611b90565b61244e6040830185611c79565b818103606083015261246081846123e6565b905095945050505050565b60008151905061247a816119ba565b92915050565b60006020828403121561249657612495611984565b5b60006124a48482850161246b565b91505092915050565b7f3c73766720786d6c6e733d22687474703a2f2f7777772e77332e6f72672f323060008201527f30302f73766722207072657365727665417370656374526174696f3d22784d6960208201527f6e594d696e206d656574222076696577426f783d22302030203335302033353060408201527f223e000000000000000000000000000000000000000000000000000000000000606082015250565b6000612555606283612042565b9150612560826124ad565b606282019050919050565b7f3c7374796c653e2e62617365207b2066696c6c3a2077686974653b20666f6e7460008201527f2d66616d696c793a2073657269663b20666f6e742d73697a653a20323470783b60208201527f207d3c2f7374796c653e00000000000000000000000000000000000000000000604082015250565b60006125ed604a83612042565b91506125f88261256b565b604a82019050919050565b7f3c726563742077696474683d223130302522206865696768743d22313030252260008201527f2066696c6c3d22626c61636b22202f3e00000000000000000000000000000000602082015250565b600061265f603083612042565b915061266a82612603565b603082019050919050565b7f3c7465787420783d223530252220793d223530252220636c6173733d2262617360008201527f652220646f6d696e616e742d626173656c696e653d226d6964646c652220746560208201527f78742d616e63686f723d226d6964646c65223e00000000000000000000000000604082015250565b60006126f7605383612042565b915061270282612675565b605382019050919050565b7f576561706f6e204c6576656c3a20000000000000000000000000000000000000600082015250565b6000612743600e83612042565b915061274e8261270d565b600e82019050919050565b7f3c2f746578743e00000000000000000000000000000000000000000000000000600082015250565b600061278f600783612042565b915061279a82612759565b600782019050919050565b7f3c2f7376673e0000000000000000000000000000000000000000000000000000600082015250565b60006127db600683612042565b91506127e6826127a5565b600682019050919050565b60006127fc82612548565b9150612807826125e0565b915061281282612652565b915061281d826126ea565b915061282882612736565b91506128348284612099565b915061283f82612782565b915061284a826127ce565b915081905092915050565b7f646174613a696d6167652f7376672b786d6c3b6261736536342c000000000000600082015250565b600061288b601a83612042565b915061289682612855565b601a82019050919050565b60006128ac8261287e565b91506128b88284612099565b915081905092915050565b7f4e487b7100000000000000000000000000000000000000000000000000000000600052601260045260246000fd5b60006040820190506129076000830185611b90565b6129146020830184611c79565b9392505050565b600061292682611afb565b915061293183611afb565b925082820261293f81611afb565b9150828204841483151761295657612955611f94565b5b5092915050565b600061296882611afb565b915061297383611afb565b925082820190508082111561298b5761298a611f94565b5b92915050565b600061299c82611afb565b91506129a783611afb565b9250826129b7576129b66128c3565b5b82820490509291505056fe4142434445464748494a4b4c4d4e4f505152535455565758595a6162636465666768696a6b6c6d6e6f707172737475767778797a303132333435363738392b2fa2646970667358221220aacfbbf34c62282c354d29dcc8c13f7bc713b32eb1208762cf574318d270d49964736f6c634300081c0033",
  "linkReferences": {},
  "deployedLinkReferences": {}
}