{
  "_format": "hh-sol-artifact-1",
  "contractName": "Marketplace",
  "sourceName": "contracts/Marketplace.sol",
  "abi": [
    {
      "inputs": [
        {
          "internalType": "address",
          "name": "_nftAddress",
          "type": "address"
        },
        {
          "internalType": "address",
          "name": "_tokenAddress",
          "type": "address"
        }
      ],
      "stateMutability": "nonpayable",
      "type": "constructor"
    },
    {
      "inputs": [],
      "name": "ReentrancyGuardReentrantCall",
      "type": "error"
    },
    {
      "anonymous": false,
      "inputs": [
        {
          "indexed": true,
          "internalType": "address",
          "name": "seller",
          "type": "address"
        },
        {
          "indexed": true,
          "internalType": "uint256",
          "name": "tokenId",
          "type": "uint256"
        }
      ],
      "name": "ItemCanceled",
      "type": "event"
    },
    {
      "anonymous": false,
      "inputs": [
        {
          "indexed": true,
          "internalType": "address",
          "name": "seller",
          "type": "address"
        },
        {
          "indexed": true,
          "internalType": "uint256",
          "name": "tokenId",
          "type": "uint256"
        },
        {
          "indexed": false,
          "internalType": "uint256",
          "name": "price",
          "type": "uint256"
        }
      ],
      "name": "ItemListed",
      "type": "event"
    },
    {
      "anonymous": false,
      "inputs": [
        {
          "indexed": true,
          "internalType": "address",
          "name": "buyer",
          "type": "address"
        },
        {
          "indexed": true,
          "internalType": "uint256",
          "name": "tokenId",
          "type": "uint256"
        },
        {
          "indexed": false,
          "internalType": "uint256",
          "name": "price",
          "type": "uint256"
        }
      ],
      "name": "ItemSold",
      "type": "event"
    },
    {
      "inputs": [
        {
          "internalType": "uint256",
          "name": "tokenId",
          "type": "uint256"
        }
      ],
      "name": "buyItem",
      "outputs": [],
      "stateMutability": "nonpayable",
      "type": "function"
    },
    {
      "inputs": [
        {
          "internalType": "uint256",
          "name": "tokenId",
          "type": "uint256"
        }
      ],
      "name": "cancelListing",
      "outputs": [],
      "stateMutability": "nonpayable",
      "type": "function"
    },
    {
      "inputs": [
        {
          "internalType": "uint256",
          "name": "tokenId",
          "type": "uint256"
        },
        {
          "internalType": "uint256",
          "name": "price",
          "type": "uint256"
        }
      ],
      "name": "listItem",
      "outputs": [],
      "stateMutability": "nonpayable",
      "type": "function"
    },
    {
      "inputs": [
        {
          "internalType": "uint256",
          "name": "",
          "type": "uint256"
        }
      ],
      "name": "listings",
      "outputs": [
        {
          "internalType": "address",
          "name": "seller",
          "type": "address"
        },
        {
          "internalType": "uint256",
          "name": "price",
          "type": "uint256"
        },
        {
          "internalType": "bool",
          "name": "active",
          "type": "bool"
        }
      ],
      "stateMutability": "view",
      "type": "function"
    },
    {
      "inputs": [],
      "name": "nftContract",
      "outputs": [
        {
          "internalType": "contract IERC721",
          "name": "",
          "type": "address"
        }
      ],
      "stateMutability": "view",
      "type": "function"
    },
    {
      "inputs": [],
      "name": "tokenContract",
      "outputs": [
        {
          "internalType": "contract IERC20",
          "name": "",
          "type": "address"
        }
      ],
      "stateMutability": "view",
      "type": "function"
    }
  ],
  "bytecode": "0x608060405234801561001057600080fd5b5060405161121538038061121583398181016040528101906100329190610126565b600160008190555081600160006101000a81548173ffffffffffffffffffffffffffffffffffffffff021916908373ffffffffffffffffffffffffffffffffffffffff16021790555080600260006101000a81548173ffffffffffffffffffffffffffffffffffffffff021916908373ffffffffffffffffffffffffffffffffffffffff1602179055505050610166565b600080fd5b600073ffffffffffffffffffffffffffffffffffffffff82169050919050565b60006100f3826100c8565b9050919050565b610103816100e8565b811461010e57600080fd5b50565b600081519050610120816100fa565b92915050565b6000806040838503121561013d5761013c6100c3565b5b600061014b85828601610111565b925050602061015c85828601610111565b9150509250929050565b6110a0806101756000396000f3fe608060405234801561001057600080fd5b50600436106100625760003560e01c8063305a67a81461006757806355a373d614610083578063883efa67146100a1578063d56d229d146100bd578063de74e57b146100db578063e7fb74c71461010d575b600080fd5b610081600480360381019061007c9190610b08565b610129565b005b61008b6103be565b6040516100989190610bb4565b60405180910390f35b6100bb60048036038101906100b69190610bcf565b6103e4565b005b6100c56106df565b6040516100d29190610c30565b60405180910390f35b6100f560048036038101906100f09190610b08565b610705565b60405161010493929190610c96565b60405180910390f35b61012760048036038101906101229190610b08565b61075c565b005b610131610a7d565b6000600360008381526020019081526020016000206040518060600160405290816000820160009054906101000a900473ffffffffffffffffffffffffffffffffffffffff1673ffffffffffffffffffffffffffffffffffffffff1673ffffffffffffffffffffffffffffffffffffffff168152602001600182015481526020016002820160009054906101000a900460ff16151515158152505090503373ffffffffffffffffffffffffffffffffffffffff16816000015173ffffffffffffffffffffffffffffffffffffffff1614610240576040517f08c379a000000000000000000000000000000000000000000000000000000000815260040161023790610d2a565b60405180910390fd5b8060400151610284576040517f08c379a000000000000000000000000000000000000000000000000000000000815260040161027b90610d96565b60405180910390fd5b600160009054906101000a900473ffffffffffffffffffffffffffffffffffffffff1673ffffffffffffffffffffffffffffffffffffffff166323b872dd3033856040518463ffffffff1660e01b81526004016102e393929190610db6565b600060405180830381600087803b1580156102fd57600080fd5b505af1158015610311573d6000803e3d6000fd5b5050505060036000838152602001908152602001600020600080820160006101000a81549073ffffffffffffffffffffffffffffffffffffffff021916905560018201600090556002820160006101000a81549060ff02191690555050813373ffffffffffffffffffffffffffffffffffffffff167ff86e54241e209ee4b38db8e64af9614b083d18f23c32f3293c8a87c6b8bf894360405160405180910390a3506103bb610ac3565b50565b600260009054906101000a900473ffffffffffffffffffffffffffffffffffffffff1681565b6103ec610a7d565b6000811161042f576040517f08c379a000000000000000000000000000000000000000000000000000000000815260040161042690610e39565b60405180910390fd5b3373ffffffffffffffffffffffffffffffffffffffff16600160009054906101000a900473ffffffffffffffffffffffffffffffffffffffff1673ffffffffffffffffffffffffffffffffffffffff16636352211e846040518263ffffffff1660e01b81526004016104a19190610e59565b602060405180830381865afa1580156104be573d6000803e3d6000fd5b505050506040513d601f19601f820116820180604052508101906104e29190610ea0565b73ffffffffffffffffffffffffffffffffffffffff1614610538576040517f08c379a000000000000000000000000000000000000000000000000000000000815260040161052f90610f19565b60405180910390fd5b600160009054906101000a900473ffffffffffffffffffffffffffffffffffffffff1673ffffffffffffffffffffffffffffffffffffffff166323b872dd3330856040518463ffffffff1660e01b815260040161059793929190610db6565b600060405180830381600087803b1580156105b157600080fd5b505af11580156105c5573d6000803e3d6000fd5b5050505060405180606001604052803373ffffffffffffffffffffffffffffffffffffffff168152602001828152602001600115158152506003600084815260200190815260200160002060008201518160000160006101000a81548173ffffffffffffffffffffffffffffffffffffffff021916908373ffffffffffffffffffffffffffffffffffffffff1602179055506020820151816001015560408201518160020160006101000a81548160ff021916908315150217905550905050813373ffffffffffffffffffffffffffffffffffffffff167f94e7b934c857a9e3202e8ed9c1f3f96e396b7d2b5885930d2001abcb51ff58fa836040516106cb9190610e59565b60405180910390a36106db610ac3565b5050565b600160009054906101000a900473ffffffffffffffffffffffffffffffffffffffff1681565b60036020528060005260406000206000915090508060000160009054906101000a900473ffffffffffffffffffffffffffffffffffffffff16908060010154908060020160009054906101000a900460ff16905083565b610764610a7d565b6000600360008381526020019081526020016000206040518060600160405290816000820160009054906101000a900473ffffffffffffffffffffffffffffffffffffffff1673ffffffffffffffffffffffffffffffffffffffff1673ffffffffffffffffffffffffffffffffffffffff168152602001600182015481526020016002820160009054906101000a900460ff16151515158152505090508060400151610845576040517f08c379a000000000000000000000000000000000000000000000000000000000815260040161083c90610f85565b60405180910390fd5b6000600260009054906101000a900473ffffffffffffffffffffffffffffffffffffffff1673ffffffffffffffffffffffffffffffffffffffff166323b872dd33846000015185602001516040518463ffffffff1660e01b81526004016108ae93929190610db6565b6020604051808303816000875af11580156108cd573d6000803e3d6000fd5b505050506040513d601f19601f820116820180604052508101906108f19190610fd1565b905080610933576040517f08c379a000000000000000000000000000000000000000000000000000000000815260040161092a9061104a565b60405180910390fd5b600160009054906101000a900473ffffffffffffffffffffffffffffffffffffffff1673ffffffffffffffffffffffffffffffffffffffff166323b872dd3033866040518463ffffffff1660e01b815260040161099293929190610db6565b600060405180830381600087803b1580156109ac57600080fd5b505af11580156109c0573d6000803e3d6000fd5b5050505060036000848152602001908152602001600020600080820160006101000a81549073ffffffffffffffffffffffffffffffffffffffff021916905560018201600090556002820160006101000a81549060ff02191690555050823373ffffffffffffffffffffffffffffffffffffffff167f67b70c454298612e5de2836a2b7131dcfc7432501c85c6d9cb4771bfd7bfcd2d8460200151604051610a689190610e59565b60405180910390a35050610a7a610ac3565b50565b600260005403610ab9576040517f3ee5aeb500000000000000000000000000000000000000000000000000000000815260040160405180910390fd5b6002600081905550565b6001600081905550565b600080fd5b6000819050919050565b610ae581610ad2565b8114610af057600080fd5b50565b600081359050610b0281610adc565b92915050565b600060208284031215610b1e57610b1d610acd565b5b6000610b2c84828501610af3565b91505092915050565b600073ffffffffffffffffffffffffffffffffffffffff82169050919050565b6000819050919050565b6000610b7a610b75610b7084610b35565b610b55565b610b35565b9050919050565b6000610b8c82610b5f565b9050919050565b6000610b9e82610b81565b9050919050565b610bae81610b93565b82525050565b6000602082019050610bc96000830184610ba5565b92915050565b60008060408385031215610be657610be5610acd565b5b6000610bf485828601610af3565b9250506020610c0585828601610af3565b9150509250929050565b6000610c1a82610b81565b9050919050565b610c2a81610c0f565b82525050565b6000602082019050610c456000830184610c21565b92915050565b6000610c5682610b35565b9050919050565b610c6681610c4b565b82525050565b610c7581610ad2565b82525050565b60008115159050919050565b610c9081610c7b565b82525050565b6000606082019050610cab6000830186610c5d565b610cb86020830185610c6c565b610cc56040830184610c87565b949350505050565b600082825260208201905092915050565b7f4e6f7420796f7572206c697374696e6700000000000000000000000000000000600082015250565b6000610d14601083610ccd565b9150610d1f82610cde565b602082019050919050565b60006020820190508181036000830152610d4381610d07565b9050919050565b7f4e6f742061637469766500000000000000000000000000000000000000000000600082015250565b6000610d80600a83610ccd565b9150610d8b82610d4a565b602082019050919050565b60006020820190508181036000830152610daf81610d73565b9050919050565b6000606082019050610dcb6000830186610c5d565b610dd86020830185610c5d565b610de56040830184610c6c565b949350505050565b7f5072696365206d757374206265203e2030000000000000000000000000000000600082015250565b6000610e23601183610ccd565b9150610e2e82610ded565b602082019050919050565b60006020820190508181036000830152610e5281610e16565b9050919050565b6000602082019050610e6e6000830184610c6c565b92915050565b610e7d81610c4b565b8114610e8857600080fd5b50565b600081519050610e9a81610e74565b92915050565b600060208284031215610eb657610eb5610acd565b5b6000610ec484828501610e8b565b91505092915050565b7f4e6f7420746865206f776e657200000000000000000000000000000000000000600082015250565b6000610f03600d83610ccd565b9150610f0e82610ecd565b602082019050919050565b60006020820190508181036000830152610f3281610ef6565b9050919050565b7f4974656d206e6f7420666f722073616c65000000000000000000000000000000600082015250565b6000610f6f601183610ccd565b9150610f7a82610f39565b602082019050919050565b60006020820190508181036000830152610f9e81610f62565b9050919050565b610fae81610c7b565b8114610fb957600080fd5b50565b600081519050610fcb81610fa5565b92915050565b600060208284031215610fe757610fe6610acd565b5b6000610ff584828501610fbc565b91505092915050565b7f5061796d656e74206661696c6564000000000000000000000000000000000000600082015250565b6000611034600e83610ccd565b915061103f82610ffe565b602082019050919050565b6000602082019050818103600083015261106381611027565b905091905056fea2646970667358221220ca4f936ae5f08909822846fd08d46dd50b0f26492cebeb1cff4fbefd298e543364736f6c634300081c0033",
  "linkReferences": {},
  "deployedLinkReferences": {}
}