{
  "_format": "hh-sol-artifact-1",
  "contractName": "Monster",
  "sourceName": "contracts/Monster.sol",
  "abi": [
    {
      "inputs": [
        {
          "internalType": "address",
          "name": "_weaponAddress",
          "type": "address"
        },
        {
          "internalType": "address",
          "name": "_tokenAddress",
          "type": "address"
        }
      ],
      "stateMutability": "nonpayable",
      "type": "constructor"
    },
    {
      "anonymous": false,
      "inputs": [
        {
          "indexed": true,
          "internalType": "address",
          "name": "player",
          "type": "address"
        },
        {
          "indexed": false,
          "internalType": "uint256",
          "name": "damageDealt",
          "type": "uint256"
        },
        {
          "indexed": false,
          "internalType": "uint256",
          "name": "monsterHPRemaining",
          "type": "uint256"
        }
      ],
      "name": "Attack",
      "type": "event"
    },
    {
      "anonymous": false,
      "inputs": [
        {
          "indexed": false,
          "internalType": "string",
          "name": "name",
          "type": "string"
        },
        {
          "indexed": false,
          "internalType": "uint256",
          "name": "hp",
          "type": "uint256"
        }
      ],
      "name": "MonsterSpawned",
      "type": "event"
    },
    {
      "anonymous": false,
      "inputs": [
        {
          "indexed": true,
          "internalType": "address",
          "name": "player",
          "type": "address"
        },
        {
          "indexed": false,
          "internalType": "uint256",
          "name": "goldEarned",
          "type": "uint256"
        }
      ],
      "name": "RewardLog",
      "type": "event"
    },
    {
      "inputs": [
        {
          "internalType": "uint256",
          "name": "weaponId",
          "type": "uint256"
        }
      ],
      "name": "attackMonster",
      "outputs": [],
      "stateMutability": "nonpayable",
      "type": "function"
    },
    {
      "inputs": [],
      "name": "currentHP",
      "outputs": [
        {
          "internalType": "uint256",
          "name": "",
          "type": "uint256"
        }
      ],
      "stateMutability": "view",
      "type": "function"
    },
    {
      "inputs": [],
      "name": "goldReward",
      "outputs": [
        {
          "internalType": "uint256",
          "name": "",
          "type": "uint256"
        }
      ],
      "stateMutability": "view",
      "type": "function"
    },
    {
      "inputs": [],
      "name": "maxHP",
      "outputs": [
        {
          "internalType": "uint256",
          "name": "",
          "type": "uint256"
        }
      ],
      "stateMutability": "view",
      "type": "function"
    },
    {
      "inputs": [],
      "name": "monsterName",
      "outputs": [
        {
          "internalType": "string",
          "name": "",
          "type": "string"
        }
      ],
      "stateMutability": "view",
      "type": "function"
    },
    {
      "inputs": [],
      "name": "tokenContract",
      "outputs": [
        {
          "internalType": "contract GameTokenV2",
          "name": "",
          "type": "address"
        }
      ],
      "stateMutability": "view",
      "type": "function"
    },
    {
      "inputs": [],
      "name": "weaponContract",
      "outputs": [
        {
          "internalType": "contract AIWeapon",
          "name": "",
          "type": "address"
        }
      ],
      "stateMutability": "view",
      "type": "function"
    }
  ],
  "bytecode": "0x608060405234801561001057600080fd5b50604051611a5c380380611a5c833981810160405281019061003291906102e9565b816000806101000a81548173ffffffffffffffffffffffffffffffffffffffff021916908373ffffffffffffffffffffffffffffffffffffffff16021790555080600160006101000a81548173ffffffffffffffffffffffffffffffffffffffff021916908373ffffffffffffffffffffffffffffffffffffffff1602179055506100c16100c860201b60201c565b50506107cc565b600042436040516020016100dd929190610354565b6040516020818303038152906040528051906020012060001c9050600060648261010791906103af565b90506032811015610173576040518060400160405280601281526020017f526164696f61637469766520476f626c696e0000000000000000000000000000815250600290816101569190610626565b506028600381905550674563918244f4000060058190555061023d565b60558110156101dd576040518060400160405280600981526020017f4d65636861204f72630000000000000000000000000000000000000000000000815250600290816101c09190610626565b50607860038190555067d02ab486cedc000060058190555061023c565b6040518060400160405280601281526020017f454c44455220435942455220445241474f4e0000000000000000000000000000815250600290816102219190610626565b5061019060038190555068056bc75e2d631000006005819055505b5b6003546004819055507f980ef0bb4bd8379f1b2f327d53a0685fdd7d220a310d71d381e2a1ffdcbb659b600260035460405161027a92919061079c565b60405180910390a15050565b600080fd5b600073ffffffffffffffffffffffffffffffffffffffff82169050919050565b60006102b68261028b565b9050919050565b6102c6816102ab565b81146102d157600080fd5b50565b6000815190506102e3816102bd565b92915050565b60008060408385031215610300576102ff610286565b5b600061030e858286016102d4565b925050602061031f858286016102d4565b9150509250929050565b6000819050919050565b6000819050919050565b61034e61034982610329565b610333565b82525050565b6000610360828561033d565b602082019150610370828461033d565b6020820191508190509392505050565b7f4e487b7100000000000000000000000000000000000000000000000000000000600052601260045260246000fd5b60006103ba82610329565b91506103c583610329565b9250826103d5576103d4610380565b5b828206905092915050565b600081519050919050565b7f4e487b7100000000000000000000000000000000000000000000000000000000600052604160045260246000fd5b7f4e487b7100000000000000000000000000000000000000000000000000000000600052602260045260246000fd5b6000600282049050600182168061046157607f821691505b6020821081036104745761047361041a565b5b50919050565b60008190508160005260206000209050919050565b60006020601f8301049050919050565b600082821b905092915050565b6000600883026104dc7fffffffffffffffffffffffffffffffffffffffffffffffffffffffffffffffff8261049f565b6104e6868361049f565b95508019841693508086168417925050509392505050565b6000819050919050565b600061052361051e61051984610329565b6104fe565b610329565b9050919050565b6000819050919050565b61053d83610508565b6105516105498261052a565b8484546104ac565b825550505050565b600090565b610566610559565b610571818484610534565b505050565b5b818110156105955761058a60008261055e565b600181019050610577565b5050565b601f8211156105da576105ab8161047a565b6105b48461048f565b810160208510156105c3578190505b6105d76105cf8561048f565b830182610576565b50505b505050565b600082821c905092915050565b60006105fd600019846008026105df565b1980831691505092915050565b600061061683836105ec565b9150826002028217905092915050565b61062f826103e0565b67ffffffffffffffff811115610648576106476103eb565b5b6106528254610449565b61065d828285610599565b600060209050601f831160018114610690576000841561067e578287015190505b610688858261060a565b8655506106f0565b601f19841661069e8661047a565b60005b828110156106c6578489015182556001820191506020850194506020810190506106a1565b868310156106e357848901516106df601f8916826105ec565b8355505b6001600288020188555050505b505050505050565b600082825260208201905092915050565b6000815461071681610449565b61072081866106f8565b9450600182166000811461073b576001811461075157610784565b60ff198316865281151560200286019350610784565b61075a8561047a565b60005b8381101561077c5781548189015260018201915060208101905061075d565b808801955050505b50505092915050565b61079681610329565b82525050565b600060408201905081810360008301526107b68185610709565b90506107c5602083018461078d565b9392505050565b611281806107db6000396000f3fe608060405234801561001057600080fd5b506004361061007d5760003560e01c806360042dee1161005b57806360042dee146100da57806360e587f9146100f8578063b00b5d6114610116578063b9f716c4146101345761007d565b80632229d34814610082578063347f0eea1461009e57806355a373d6146100bc575b600080fd5b61009c600480360381019061009791906107c4565b610152565b005b6100a66104d2565b6040516100b39190610800565b60405180910390f35b6100c46104d8565b6040516100d1919061089a565b60405180910390f35b6100e26104fe565b6040516100ef91906108d6565b60405180910390f35b610100610522565b60405161010d9190610800565b60405180910390f35b61011e610528565b60405161012b9190610981565b60405180910390f35b61013c6105b6565b6040516101499190610800565b60405180910390f35b3373ffffffffffffffffffffffffffffffffffffffff1660008054906101000a900473ffffffffffffffffffffffffffffffffffffffff1673ffffffffffffffffffffffffffffffffffffffff16636352211e836040518263ffffffff1660e01b81526004016101c29190610800565b602060405180830381865afa1580156101df573d6000803e3d6000fd5b505050506040513d601f19601f8201168201806040525081019061020391906109e1565b73ffffffffffffffffffffffffffffffffffffffff1614610259576040517f08c379a000000000000000000000000000000000000000000000000000000000815260040161025090610a5a565b60405180910390fd5b60006004541161029e576040517f08c379a000000000000000000000000000000000000000000000000000000000815260040161029590610ac6565b60405180910390fd5b60008060009054906101000a900473ffffffffffffffffffffffffffffffffffffffff1673ffffffffffffffffffffffffffffffffffffffff1663b3431b66836040518263ffffffff1660e01b81526004016102fa9190610800565b600060405180830381865afa158015610317573d6000803e3d6000fd5b505050506040513d6000823e3d601f19601f820116820180604052508101906103409190610c21565b509250505060006005826103549190610d0b565b600a6103609190610d4d565b90506004548110610461576000600481905550600160009054906101000a900473ffffffffffffffffffffffffffffffffffffffff1673ffffffffffffffffffffffffffffffffffffffff166340c10f19336005546040518363ffffffff1660e01b81526004016103d2929190610d90565b600060405180830381600087803b1580156103ec57600080fd5b505af1158015610400573d6000803e3d6000fd5b505050503373ffffffffffffffffffffffffffffffffffffffff167f02bb982336963a7ab9a56d188fd5ebc36dd064b94c5e37aebedbe8584705cc0f60055460405161044c9190610800565b60405180910390a261045c6105bc565b61047b565b80600460008282546104739190610db9565b925050819055505b3373ffffffffffffffffffffffffffffffffffffffff167f2beb23c328a7ed75beb8ef395984cc90a7f7ebb17913a9faa31d4c7f485eebc6826004546040516104c5929190610ded565b60405180910390a2505050565b60035481565b600160009054906101000a900473ffffffffffffffffffffffffffffffffffffffff1681565b60008054906101000a900473ffffffffffffffffffffffffffffffffffffffff1681565b60055481565b6002805461053590610e45565b80601f016020809104026020016040519081016040528092919081815260200182805461056190610e45565b80156105ae5780601f10610583576101008083540402835291602001916105ae565b820191906000526020600020905b81548152906001019060200180831161059157829003601f168201915b505050505081565b60045481565b600042436040516020016105d1929190610e97565b6040516020818303038152906040528051906020012060001c905060006064826105fb9190610ef2565b90506032811015610667576040518060400160405280601281526020017f526164696f61637469766520476f626c696e00000000000000000000000000008152506002908161064a91906110c5565b506028600381905550674563918244f40000600581905550610731565b60558110156106d1576040518060400160405280600981526020017f4d65636861204f72630000000000000000000000000000000000000000000000815250600290816106b491906110c5565b50607860038190555067d02ab486cedc0000600581905550610730565b6040518060400160405280601281526020017f454c44455220435942455220445241474f4e00000000000000000000000000008152506002908161071591906110c5565b5061019060038190555068056bc75e2d631000006005819055505b5b6003546004819055507f980ef0bb4bd8379f1b2f327d53a0685fdd7d220a310d71d381e2a1ffdcbb659b600260035460405161076e92919061121b565b60405180910390a15050565b6000604051905090565b600080fd5b600080fd5b6000819050919050565b6107a18161078e565b81146107ac57600080fd5b50565b6000813590506107be81610798565b92915050565b6000602082840312156107da576107d9610784565b5b60006107e8848285016107af565b91505092915050565b6107fa8161078e565b82525050565b600060208201905061081560008301846107f1565b92915050565b600073ffffffffffffffffffffffffffffffffffffffff82169050919050565b6000819050919050565b600061086061085b6108568461081b565b61083b565b61081b565b9050919050565b600061087282610845565b9050919050565b600061088482610867565b9050919050565b61089481610879565b82525050565b60006020820190506108af600083018461088b565b92915050565b60006108c082610867565b9050919050565b6108d0816108b5565b82525050565b60006020820190506108eb60008301846108c7565b92915050565b600081519050919050565b600082825260208201905092915050565b60005b8381101561092b578082015181840152602081019050610910565b60008484015250505050565b6000601f19601f8301169050919050565b6000610953826108f1565b61095d81856108fc565b935061096d81856020860161090d565b61097681610937565b840191505092915050565b6000602082019050818103600083015261099b8184610948565b905092915050565b60006109ae8261081b565b9050919050565b6109be816109a3565b81146109c957600080fd5b50565b6000815190506109db816109b5565b92915050565b6000602082840312156109f7576109f6610784565b5b6000610a05848285016109cc565b91505092915050565b7f4e6f7420796f757220776561706f6e0000000000000000000000000000000000600082015250565b6000610a44600f836108fc565b9150610a4f82610a0e565b602082019050919050565b60006020820190508181036000830152610a7381610a37565b9050919050565b7f4d6f6e7374657220697320616c72656164792064656164000000000000000000600082015250565b6000610ab06017836108fc565b9150610abb82610a7a565b602082019050919050565b60006020820190508181036000830152610adf81610aa3565b9050919050565b600080fd5b600080fd5b7f4e487b7100000000000000000000000000000000000000000000000000000000600052604160045260246000fd5b610b2882610937565b810181811067ffffffffffffffff82111715610b4757610b46610af0565b5b80604052505050565b6000610b5a61077a565b9050610b668282610b1f565b919050565b600067ffffffffffffffff821115610b8657610b85610af0565b5b610b8f82610937565b9050602081019050919050565b6000610baf610baa84610b6b565b610b50565b905082815260208101848484011115610bcb57610bca610aeb565b5b610bd684828561090d565b509392505050565b600082601f830112610bf357610bf2610ae6565b5b8151610c03848260208601610b9c565b91505092915050565b600081519050610c1b81610798565b92915050565b60008060008060808587031215610c3b57610c3a610784565b5b600085015167ffffffffffffffff811115610c5957610c58610789565b5b610c6587828801610bde565b945050602085015167ffffffffffffffff811115610c8657610c85610789565b5b610c9287828801610bde565b9350506040610ca387828801610c0c565b925050606085015167ffffffffffffffff811115610cc457610cc3610789565b5b610cd087828801610bde565b91505092959194509250565b7f4e487b7100000000000000000000000000000000000000000000000000000000600052601160045260246000fd5b6000610d168261078e565b9150610d218361078e565b9250828202610d2f8161078e565b91508282048414831517610d4657610d45610cdc565b5b5092915050565b6000610d588261078e565b9150610d638361078e565b9250828201905080821115610d7b57610d7a610cdc565b5b92915050565b610d8a816109a3565b82525050565b6000604082019050610da56000830185610d81565b610db260208301846107f1565b9392505050565b6000610dc48261078e565b9150610dcf8361078e565b9250828203905081811115610de757610de6610cdc565b5b92915050565b6000604082019050610e0260008301856107f1565b610e0f60208301846107f1565b9392505050565b7f4e487b7100000000000000000000000000000000000000000000000000000000600052602260045260246000fd5b60006002820490506001821680610e5d57607f821691505b602082108103610e7057610e6f610e16565b5b50919050565b6000819050919050565b610e91610e8c8261078e565b610e76565b82525050565b6000610ea38285610e80565b602082019150610eb38284610e80565b6020820191508190509392505050565b7f4e487b7100000000000000000000000000000000000000000000000000000000600052601260045260246000fd5b6000610efd8261078e565b9150610f088361078e565b925082610f1857610f17610ec3565b5b828206905092915050565b60008190508160005260206000209050919050565b60006020601f8301049050919050565b600082821b905092915050565b600060088302610f857fffffffffffffffffffffffffffffffffffffffffffffffffffffffffffffffff82610f48565b610f8f8683610f48565b95508019841693508086168417925050509392505050565b6000610fc2610fbd610fb88461078e565b61083b565b61078e565b9050919050565b6000819050919050565b610fdc83610fa7565b610ff0610fe882610fc9565b848454610f55565b825550505050565b600090565b611005610ff8565b611010818484610fd3565b505050565b5b8181101561103457611029600082610ffd565b600181019050611016565b5050565b601f8211156110795761104a81610f23565b61105384610f38565b81016020851015611062578190505b61107661106e85610f38565b830182611015565b50505b505050565b600082821c905092915050565b600061109c6000198460080261107e565b1980831691505092915050565b60006110b5838361108b565b9150826002028217905092915050565b6110ce826108f1565b67ffffffffffffffff8111156110e7576110e6610af0565b5b6110f18254610e45565b6110fc828285611038565b600060209050601f83116001811461112f576000841561111d578287015190505b61112785826110a9565b86555061118f565b601f19841661113d86610f23565b60005b8281101561116557848901518255600182019150602085019450602081019050611140565b86831015611182578489015161117e601f89168261108b565b8355505b6001600288020188555050505b505050505050565b600081546111a481610e45565b6111ae81866108fc565b945060018216600081146111c957600181146111df57611212565b60ff198316865281151560200286019350611212565b6111e885610f23565b60005b8381101561120a578154818901526001820191506020810190506111eb565b808801955050505b50505092915050565b600060408201905081810360008301526112358185611197565b905061124460208301846107f1565b939250505056fea26469706673582212200e14e72e1261b9fa313bb2a024ea1d7bfdfe1592fb86463dc4fe685fa1342c2164736f6c634300081c0033",
  "linkReferences": {},
  "deployedLinkReferences": {}
}