{
  "_format": "hh-sol-artifact-1",
  "contractName": "VendingMachine",
  "sourceName": "contracts/VendingMachine.sol",
  "abi": [
    {
      "inputs": [
        {
          "internalType": "address",
          "name": "_tokenAddress",
          "type": "address"
        }
      ],
      "stateMutability": "nonpayable",
      "type": "constructor"
    },
    {
      "anonymous": false,
      "inputs": [
        {
          "indexed": false,
          "internalType": "address",
          "name": "buyer",
          "type": "address"
        },
        {
          "indexed": false,
          "internalType": "uint256",
          "name": "amountOfETH",
          "type": "uint256"
        },
        {
          "indexed": false,
          "internalType": "uint256",
          "name": "amountOfTokens",
          "type": "uint256"
        }
      ],
      "name": "Purchased",
      "type": "event"
    },
    {
      "inputs": [],
      "name": "buyAmmo",
      "outputs": [],
      "stateMutability": "payable",
      "type": "function"
    },
    {
      "inputs": [],
      "name": "owner",
      "outputs": [
        {
          "internalType": "address",
          "name": "",
          "type": "address"
        }
      ],
      "stateMutability": "view",
      "type": "function"
    },
    {
      "inputs": [
        {
          "internalType": "uint256",
          "name": "_newPrice",
          "type": "uint256"
        }
      ],
      "name": "setPrice",
      "outputs": [],
      "stateMutability": "nonpayable",
      "type": "function"
    },
    {
      "inputs": [],
      "name": "token",
      "outputs": [
        {
          "internalType": "contract IERC20",
          "name": "",
          "type": "address"
        }
      ],
      "stateMutability": "view",
      "type": "function"
    },
    {
      "inputs": [],
      "name": "tokensPerEth",
      "outputs": [
        {
          "internalType": "uint256",
          "name": "",
          "type": "uint256"
        }
      ],
      "stateMutability": "view",
      "type": "function"
    },
    {
      "inputs": [],
      "name": "withdraw",
      "outputs": [],
      "stateMutability": "nonpayable",
      "type": "function"
    }
  ],
  "bytecode": "0x6080604052606460025534801561001557600080fd5b50604051610d19380380610d1983398181016040528101906100379190610121565b336000806101000a81548173ffffffffffffffffffffffffffffffffffffffff021916908373ffffffffffffffffffffffffffffffffffffffff16021790555080600160006101000a81548173ffffffffffffffffffffffffffffffffffffffff021916908373ffffffffffffffffffffffffffffffffffffffff1602179055505061014e565b600080fd5b600073ffffffffffffffffffffffffffffffffffffffff82169050919050565b60006100ee826100c3565b9050919050565b6100fe816100e3565b811461010957600080fd5b50565b60008151905061011b816100f5565b92915050565b600060208284031215610137576101366100be565b5b60006101458482850161010c565b91505092915050565b610bbc8061015d6000396000f3fe6080604052600436106100555760003560e01c80633ccfd60b1461005a578063499eb3de146100715780638da5cb5b1461007b57806391b7f5ed146100a6578063cbdd69b5146100cf578063fc0c546a146100fa575b600080fd5b34801561006657600080fd5b5061006f610125565b005b610079610283565b005b34801561008757600080fd5b506100906104df565b60405161009d9190610608565b60405180910390f35b3480156100b257600080fd5b506100cd60048036038101906100c8919061065e565b610503565b005b3480156100db57600080fd5b506100e461059b565b6040516100f1919061069a565b60405180910390f35b34801561010657600080fd5b5061010f6105a1565b60405161011c9190610714565b60405180910390f35b60008054906101000a900473ffffffffffffffffffffffffffffffffffffffff1673ffffffffffffffffffffffffffffffffffffffff163373ffffffffffffffffffffffffffffffffffffffff16146101b3576040517f08c379a00000000000000000000000000000000000000000000000000000000081526004016101aa9061078c565b60405180910390fd5b60008060009054906101000a900473ffffffffffffffffffffffffffffffffffffffff1673ffffffffffffffffffffffffffffffffffffffff16476040516101fa906107dd565b60006040518083038185875af1925050503d8060008114610237576040519150601f19603f3d011682016040523d82523d6000602084013e61023c565b606091505b5050905080610280576040517f08c379a00000000000000000000000000000000000000000000000000000000081526004016102779061083e565b60405180910390fd5b50565b600034116102c6576040517f08c379a00000000000000000000000000000000000000000000000000000000081526004016102bd906108aa565b60405180910390fd5b6000600254346102d691906108f9565b90506000600160009054906101000a900473ffffffffffffffffffffffffffffffffffffffff1673ffffffffffffffffffffffffffffffffffffffff166370a08231306040518263ffffffff1660e01b81526004016103359190610608565b602060405180830381865afa158015610352573d6000803e3d6000fd5b505050506040513d601f19601f820116820180604052508101906103769190610950565b9050818110156103bb576040517f08c379a00000000000000000000000000000000000000000000000000000000081526004016103b2906109c9565b60405180910390fd5b6000600160009054906101000a900473ffffffffffffffffffffffffffffffffffffffff1673ffffffffffffffffffffffffffffffffffffffff1663a9059cbb33856040518363ffffffff1660e01b815260040161041a9291906109e9565b6020604051808303816000875af1158015610439573d6000803e3d6000fd5b505050506040513d601f19601f8201168201806040525081019061045d9190610a4a565b90508061049f576040517f08c379a000000000000000000000000000000000000000000000000000000000815260040161049690610ac3565b60405180910390fd5b7ff761777482b4b40d2bcc0d050cfba6829900a2d8b3484bd0244ec0feeb3db5043334856040516104d293929190610ae3565b60405180910390a1505050565b60008054906101000a900473ffffffffffffffffffffffffffffffffffffffff1681565b60008054906101000a900473ffffffffffffffffffffffffffffffffffffffff1673ffffffffffffffffffffffffffffffffffffffff163373ffffffffffffffffffffffffffffffffffffffff1614610591576040517f08c379a000000000000000000000000000000000000000000000000000000000815260040161058890610b66565b60405180910390fd5b8060028190555050565b60025481565b600160009054906101000a900473ffffffffffffffffffffffffffffffffffffffff1681565b600073ffffffffffffffffffffffffffffffffffffffff82169050919050565b60006105f2826105c7565b9050919050565b610602816105e7565b82525050565b600060208201905061061d60008301846105f9565b92915050565b600080fd5b6000819050919050565b61063b81610628565b811461064657600080fd5b50565b60008135905061065881610632565b92915050565b60006020828403121561067457610673610623565b5b600061068284828501610649565b91505092915050565b61069481610628565b82525050565b60006020820190506106af600083018461068b565b92915050565b6000819050919050565b60006106da6106d56106d0846105c7565b6106b5565b6105c7565b9050919050565b60006106ec826106bf565b9050919050565b60006106fe826106e1565b9050919050565b61070e816106f3565b82525050565b60006020820190506107296000830184610705565b92915050565b600082825260208201905092915050565b7f4f6e6c79206f776e65722063616e207769746864726177000000000000000000600082015250565b600061077660178361072f565b915061078182610740565b602082019050919050565b600060208201905081810360008301526107a581610769565b9050919050565b600081905092915050565b50565b60006107c76000836107ac565b91506107d2826107b7565b600082019050919050565b60006107e8826107ba565b9150819050919050565b7f4661696c656420746f2073656e64204574686572000000000000000000000000600082015250565b600061082860148361072f565b9150610833826107f2565b602082019050919050565b600060208201905081810360008301526108578161081b565b9050919050565b7f53656e642045544820746f2062757920616d6d6f000000000000000000000000600082015250565b600061089460148361072f565b915061089f8261085e565b602082019050919050565b600060208201905081810360008301526108c381610887565b9050919050565b7f4e487b7100000000000000000000000000000000000000000000000000000000600052601160045260246000fd5b600061090482610628565b915061090f83610628565b925082820261091d81610628565b91508282048414831517610934576109336108ca565b5b5092915050565b60008151905061094a81610632565b92915050565b60006020828403121561096657610965610623565b5b60006109748482850161093b565b91505092915050565b7f56656e646f72206973206f7574206f662073746f636b21000000000000000000600082015250565b60006109b360178361072f565b91506109be8261097d565b602082019050919050565b600060208201905081810360008301526109e2816109a6565b9050919050565b60006040820190506109fe60008301856105f9565b610a0b602083018461068b565b9392505050565b60008115159050919050565b610a2781610a12565b8114610a3257600080fd5b50565b600081519050610a4481610a1e565b92915050565b600060208284031215610a6057610a5f610623565b5b6000610a6e84828501610a35565b91505092915050565b7f4661696c656420746f207472616e7366657220746f6b656e0000000000000000600082015250565b6000610aad60188361072f565b9150610ab882610a77565b602082019050919050565b60006020820190508181036000830152610adc81610aa0565b9050919050565b6000606082019050610af860008301866105f9565b610b05602083018561068b565b610b12604083018461068b565b949350505050565b7f4f6e6c792074686520426f73732063616e206368616e67652070726963657300600082015250565b6000610b50601f8361072f565b9150610b5b82610b1a565b602082019050919050565b60006020820190508181036000830152610b7f81610b43565b905091905056fea26469706673582212201d70235e26d382a2a1588f0423ccbcb35060ae38e9704400d036ae863ae2636464736f6c634300081c0033",
  "linkReferences": {},
  "deployedLinkReferences": {}
}